{
  "contractName": "FriendRequestManager",
  "abi": [
    {
      "anonymous": false,
      "inputs": [
        {
          "indexed": true,
          "internalType": "address",
          "name": "sender",
          "type": "address"
        },
        {
          "indexed": true,
          "internalType": "address",
          "name": "receiver",
          "type": "address"
        }
      ],
      "name": "FriendRequestSent",
      "type": "event"
    },
    {
      "anonymous": false,
      "inputs": [
        {
          "indexed": true,
          "internalType": "address",
          "name": "sender",
          "type": "address"
        },
        {
          "indexed": true,
          "internalType": "address",
          "name": "receiver",
          "type": "address"
        },
        {
          "indexed": false,
          "internalType": "enum FriendRequestManager.RequestStatus",
          "name": "status",
          "type": "uint8"
        }
      ],
      "name": "FriendRequestUpdated",
      "type": "event"
    },
    {
      "inputs": [
        {
          "internalType": "address",
          "name": "",
          "type": "address"
        },
        {
          "internalType": "uint256",
          "name": "",
          "type": "uint256"
        }
      ],
      "name": "incomingFriendRequests",
      "outputs": [
        {
          "internalType": "address",
          "name": "sender",
          "type": "address"
        },
        {
          "internalType": "address",
          "name": "receiver",
          "type": "address"
        },
        {
          "internalType": "enum FriendRequestManager.RequestStatus",
          "name": "status",
          "type": "uint8"
        }
      ],
      "stateMutability": "view",
      "type": "function",
      "constant": true
    },
    {
      "inputs": [
        {
          "internalType": "address",
          "name": "",
          "type": "address"
        },
        {
          "internalType": "uint256",
          "name": "",
          "type": "uint256"
        }
      ],
      "name": "outgoingFriendRequests",
      "outputs": [
        {
          "internalType": "address",
          "name": "sender",
          "type": "address"
        },
        {
          "internalType": "address",
          "name": "receiver",
          "type": "address"
        },
        {
          "internalType": "enum FriendRequestManager.RequestStatus",
          "name": "status",
          "type": "uint8"
        }
      ],
      "stateMutability": "view",
      "type": "function",
      "constant": true
    },
    {
      "inputs": [
        {
          "internalType": "address",
          "name": "_receiver",
          "type": "address"
        }
      ],
      "name": "sendFriendRequest",
      "outputs": [],
      "stateMutability": "nonpayable",
      "type": "function"
    },
    {
      "inputs": [
        {
          "internalType": "address",
          "name": "_sender",
          "type": "address"
        },
        {
          "internalType": "bool",
          "name": "_accept",
          "type": "bool"
        }
      ],
      "name": "respondToFriendRequest",
      "outputs": [],
      "stateMutability": "nonpayable",
      "type": "function"
    }
  ],
  "bytecode": "0x608060405234801561001057600080fd5b50611063806100206000396000f3fe608060405234801561001057600080fd5b506004361061004c5760003560e01c806312ef5baf14610051578063837b770a1461006d578063a1ba65aa14610089578063f3a0503c146100bb575b600080fd5b61006b60048036038101906100669190610bbf565b6100ed565b005b61008760048036038101906100829190610bff565b6103af565b005b6100a3600480360381019061009e9190610c62565b610774565b6040516100b293929190610d28565b60405180910390f35b6100d560048036038101906100d09190610c62565b610808565b6040516100e493929190610d28565b60405180910390f35b60008060003373ffffffffffffffffffffffffffffffffffffffff1673ffffffffffffffffffffffffffffffffffffffff16815260200190815260200160002090506000600160008573ffffffffffffffffffffffffffffffffffffffff1673ffffffffffffffffffffffffffffffffffffffff1681526020019081526020016000209050600061017e838661089c565b9050828054905081106101c6576040517f08c379a00000000000000000000000000000000000000000000000000000000081526004016101bd90610dbc565b60405180910390fd5b600060028111156101da576101d9610cb1565b5b8382815481106101ed576101ec610ddc565b5b906000526020600020906002020160010160149054906101000a900460ff16600281111561021e5761021d610cb1565b5b1461025e576040517f08c379a000000000000000000000000000000000000000000000000000000000815260040161025590610e7d565b60405180910390fd5b8361026a57600261026d565b60015b8382815481106102805761027f610ddc565b5b906000526020600020906002020160010160146101000a81548160ff021916908360028111156102b3576102b2610cb1565b5b0217905550836102c45760026102c7565b60015b8282815481106102da576102d9610ddc565b5b906000526020600020906002020160010160146101000a81548160ff0219169083600281111561030d5761030c610cb1565b5b02179055503373ffffffffffffffffffffffffffffffffffffffff168573ffffffffffffffffffffffffffffffffffffffff167faebc990def601d1e82c25ce55a8557c37a68b8a51ec98544b2b08d789f717a8d85848154811061037457610373610ddc565b5b906000526020600020906002020160010160149054906101000a900460ff166040516103a09190610e9d565b60405180910390a35050505050565b8073ffffffffffffffffffffffffffffffffffffffff163373ffffffffffffffffffffffffffffffffffffffff160361041d576040517f08c379a000000000000000000000000000000000000000000000000000000000815260040161041490610f2a565b60405180910390fd5b61042733826109cd565b15610467576040517f08c379a000000000000000000000000000000000000000000000000000000000815260040161045e90610f96565b60405180910390fd5b600060405180606001604052803373ffffffffffffffffffffffffffffffffffffffff1681526020018373ffffffffffffffffffffffffffffffffffffffff168152602001600060028111156104c0576104bf610cb1565b5b8152509050600160003373ffffffffffffffffffffffffffffffffffffffff1673ffffffffffffffffffffffffffffffffffffffff16815260200190815260200160002081908060018154018082558091505060019003906000526020600020906002020160009091909190915060008201518160000160006101000a81548173ffffffffffffffffffffffffffffffffffffffff021916908373ffffffffffffffffffffffffffffffffffffffff16021790555060208201518160010160006101000a81548173ffffffffffffffffffffffffffffffffffffffff021916908373ffffffffffffffffffffffffffffffffffffffff16021790555060408201518160010160146101000a81548160ff021916908360028111156105e7576105e6610cb1565b5b021790555050506000808373ffffffffffffffffffffffffffffffffffffffff1673ffffffffffffffffffffffffffffffffffffffff16815260200190815260200160002081908060018154018082558091505060019003906000526020600020906002020160009091909190915060008201518160000160006101000a81548173ffffffffffffffffffffffffffffffffffffffff021916908373ffffffffffffffffffffffffffffffffffffffff16021790555060208201518160010160006101000a81548173ffffffffffffffffffffffffffffffffffffffff021916908373ffffffffffffffffffffffffffffffffffffffff16021790555060408201518160010160146101000a81548160ff0219169083600281111561070f5761070e610cb1565b5b021790555050508173ffffffffffffffffffffffffffffffffffffffff163373ffffffffffffffffffffffffffffffffffffffff167f2b4b3b31b7040b3566331c8302dff4a575764757795335d5e9184fd4174c33b260405160405180910390a35050565b6001602052816000526040600020818154811061079057600080fd5b9060005260206000209060020201600091509150508060000160009054906101000a900473ffffffffffffffffffffffffffffffffffffffff16908060010160009054906101000a900473ffffffffffffffffffffffffffffffffffffffff16908060010160149054906101000a900460ff16905083565b6000602052816000526040600020818154811061082457600080fd5b9060005260206000209060020201600091509150508060000160009054906101000a900473ffffffffffffffffffffffffffffffffffffffff16908060010160009054906101000a900473ffffffffffffffffffffffffffffffffffffffff16908060010160149054906101000a900460ff16905083565b600080600090505b83805490508110156109be578273ffffffffffffffffffffffffffffffffffffffff168482815481106108da576108d9610ddc565b5b906000526020600020906002020160000160009054906101000a900473ffffffffffffffffffffffffffffffffffffffff1673ffffffffffffffffffffffffffffffffffffffff16148061099d57508273ffffffffffffffffffffffffffffffffffffffff1684828154811061095357610952610ddc565b5b906000526020600020906002020160010160009054906101000a900473ffffffffffffffffffffffffffffffffffffffff1673ffffffffffffffffffffffffffffffffffffffff16145b156109ab57809150506109c7565b80806109b690610fe5565b9150506108a4565b50828054905090505b92915050565b600080600160008573ffffffffffffffffffffffffffffffffffffffff1673ffffffffffffffffffffffffffffffffffffffff168152602001908152602001600020905060005b8180549050811015610b17578373ffffffffffffffffffffffffffffffffffffffff16828281548110610a4a57610a49610ddc565b5b906000526020600020906002020160010160009054906101000a900473ffffffffffffffffffffffffffffffffffffffff1673ffffffffffffffffffffffffffffffffffffffff16148015610af4575060006002811115610aae57610aad610cb1565b5b828281548110610ac157610ac0610ddc565b5b906000526020600020906002020160010160149054906101000a900460ff166002811115610af257610af1610cb1565b5b145b15610b0457600192505050610b1e565b8080610b0f90610fe5565b915050610a14565b5060009150505b92915050565b600080fd5b600073ffffffffffffffffffffffffffffffffffffffff82169050919050565b6000610b5482610b29565b9050919050565b610b6481610b49565b8114610b6f57600080fd5b50565b600081359050610b8181610b5b565b92915050565b60008115159050919050565b610b9c81610b87565b8114610ba757600080fd5b50565b600081359050610bb981610b93565b92915050565b60008060408385031215610bd657610bd5610b24565b5b6000610be485828601610b72565b9250506020610bf585828601610baa565b9150509250929050565b600060208284031215610c1557610c14610b24565b5b6000610c2384828501610b72565b91505092915050565b6000819050919050565b610c3f81610c2c565b8114610c4a57600080fd5b50565b600081359050610c5c81610c36565b92915050565b60008060408385031215610c7957610c78610b24565b5b6000610c8785828601610b72565b9250506020610c9885828601610c4d565b9150509250929050565b610cab81610b49565b82525050565b7f4e487b7100000000000000000000000000000000000000000000000000000000600052602160045260246000fd5b60038110610cf157610cf0610cb1565b5b50565b6000819050610d0282610ce0565b919050565b6000610d1282610cf4565b9050919050565b610d2281610d07565b82525050565b6000606082019050610d3d6000830186610ca2565b610d4a6020830185610ca2565b610d576040830184610d19565b949350505050565b600082825260208201905092915050565b7f467269656e642072657175657374206e6f7420666f756e640000000000000000600082015250565b6000610da6601883610d5f565b9150610db182610d70565b602082019050919050565b60006020820190508181036000830152610dd581610d99565b9050919050565b7f4e487b7100000000000000000000000000000000000000000000000000000000600052603260045260246000fd5b7f467269656e6420726571756573742068617320616c7265616479206265656e2060008201527f726573706f6e64656420746f0000000000000000000000000000000000000000602082015250565b6000610e67602c83610d5f565b9150610e7282610e0b565b604082019050919050565b60006020820190508181036000830152610e9681610e5a565b9050919050565b6000602082019050610eb26000830184610d19565b92915050565b7f43616e6e6f742073656e6420667269656e64207265717565737420746f20796f60008201527f757273656c660000000000000000000000000000000000000000000000000000602082015250565b6000610f14602683610d5f565b9150610f1f82610eb8565b604082019050919050565b60006020820190508181036000830152610f4381610f07565b9050919050565b7f467269656e64207265717565737420616c726561647920657869737473000000600082015250565b6000610f80601d83610d5f565b9150610f8b82610f4a565b602082019050919050565b60006020820190508181036000830152610faf81610f73565b9050919050565b7f4e487b7100000000000000000000000000000000000000000000000000000000600052601160045260246000fd5b6000610ff082610c2c565b91507fffffffffffffffffffffffffffffffffffffffffffffffffffffffffffffffff820361102257611021610fb6565b5b60018201905091905056fea26469706673582212204a8aecf79700a55b117b6b88d29ab8f9fa3e0c4aba68177e4d41a78222d1a04064736f6c63430008130033",
  "immutableReferences": {},
  "source": "// SPDX-License-Identifier: MIT\npragma solidity ^0.8.19;\n\n/**\n * @title FriendRequestManager\n * @dev A smart contract for managing friend requests between users.\n */\ncontract FriendRequestManager {\n    // Enum to represent the status of a friend request\n    enum RequestStatus {\n        Pending,\n        Accepted,\n        Rejected\n    }\n\n    // Struct to represent a friend request\n    struct FriendRequest {\n        address sender;\n        address receiver;\n        RequestStatus status;\n    }\n\n    // Mapping to store friend requests\n    mapping(address => FriendRequest[]) public incomingFriendRequests;\n    mapping(address => FriendRequest[]) public outgoingFriendRequests;\n\n    // Event emitted when a new friend request is sent\n    event FriendRequestSent(address indexed sender, address indexed receiver);\n\n    // Event emitted when a friend request is accepted or rejected\n    event FriendRequestUpdated(address indexed sender, address indexed receiver, RequestStatus status);\n\n    /**\n     * @dev Sends a friend request to another user.\n     * @param _receiver The address of the user to whom the friend request is sent.\n     */\n    function sendFriendRequest(address _receiver) external {\n        require(msg.sender != _receiver, \"Cannot send friend request to yourself\");\n\n        // Check if a friend request already exists\n        require(!friendRequestExists(msg.sender, _receiver), \"Friend request already exists\");\n\n        // Create a new friend request\n        FriendRequest memory newRequest = FriendRequest({\n            sender: msg.sender,\n            receiver: _receiver,\n            status: RequestStatus.Pending\n        });\n\n        // Add the friend request to the sender's outgoing requests and receiver's incoming requests\n        outgoingFriendRequests[msg.sender].push(newRequest);\n        incomingFriendRequests[_receiver].push(newRequest);\n\n        // Emit event\n        emit FriendRequestSent(msg.sender, _receiver);\n    }\n\n    /**\n     * @dev Responds to a friend request by accepting or rejecting it.\n     * @param _sender The address of the user who sent the friend request.\n     * @param _accept A boolean indicating whether the friend request is accepted (true) or rejected (false).\n     */\n    function respondToFriendRequest(address _sender, bool _accept) external {\n        // Find the friend request\n        FriendRequest[] storage incomingRequests = incomingFriendRequests[msg.sender];\n        FriendRequest[] storage outgoingRequests = outgoingFriendRequests[_sender];\n\n        uint256 index = findFriendRequestIndex(incomingRequests, _sender);\n\n        require(index < incomingRequests.length, \"Friend request not found\");\n        require(incomingRequests[index].status == RequestStatus.Pending, \"Friend request has already been responded to\");\n\n        // Update the status of the friend request\n        incomingRequests[index].status = _accept ? RequestStatus.Accepted : RequestStatus.Rejected;\n        outgoingRequests[index].status = _accept ? RequestStatus.Accepted : RequestStatus.Rejected;\n\n        // Emit event\n        emit FriendRequestUpdated(_sender, msg.sender, incomingRequests[index].status);\n    }\n\n    /**\n     * @dev Checks if a friend request already exists.\n     * @param _sender The address of the user who sent the friend request.\n     * @param _receiver The address of the user who received the friend request.\n     * @return A boolean indicating whether the friend request already exists.\n     */\n    function friendRequestExists(address _sender, address _receiver) internal view returns (bool) {\n        FriendRequest[] storage outgoingRequests = outgoingFriendRequests[_sender];\n\n        for (uint256 i = 0; i < outgoingRequests.length; i++) {\n            if (outgoingRequests[i].receiver == _receiver && outgoingRequests[i].status == RequestStatus.Pending) {\n                return true;\n            }\n        }\n\n        return false;\n    }\n\n    /**\n     * @dev Finds the index of a friend request.\n     * @param _requests The array of friend requests to search.\n     * @param _target The address of the user involved in the friend request.\n     * @return The index of the friend request in the array.\n     */\n    function findFriendRequestIndex(FriendRequest[] storage _requests, address _target) internal view returns (uint256) {\n        for (uint256 i = 0; i < _requests.length; i++) {\n            if (_requests[i].sender == _target || _requests[i].receiver == _target) {\n                return i;\n            }\n        }\n        return _requests.length;\n    }\n}\n",
  "sourcePath": "/workspaces/DappComm/src/app/contracts/FriendRequestManager.sol",
  "compiler": {
    "name": "solc",
    "version": "0.8.19+commit.7dd6d404.Emscripten.clang"
  },
  "schemaVersion": "3.4.16",
  "updatedAt": "2024-01-24T17:45:55.759Z",
  "networkType": "ethereum",
  "devdoc": {
    "details": "A smart contract for managing friend requests between users.",
    "kind": "dev",
    "methods": {
      "respondToFriendRequest(address,bool)": {
        "details": "Responds to a friend request by accepting or rejecting it.",
        "params": {
          "_accept": "A boolean indicating whether the friend request is accepted (true) or rejected (false).",
          "_sender": "The address of the user who sent the friend request."
        }
      },
      "sendFriendRequest(address)": {
        "details": "Sends a friend request to another user.",
        "params": {
          "_receiver": "The address of the user to whom the friend request is sent."
        }
      }
    },
    "title": "FriendRequestManager",
    "version": 1
  },
  "userdoc": {
    "kind": "user",
    "methods": {},
    "version": 1
  }
}