{
  "contractName": "FriendRequestManager",
  "abi": [
    {
      "inputs": [
        {
          "internalType": "address",
          "name": "_relationshipManagerContractAddress",
          "type": "address"
        }
      ],
      "stateMutability": "nonpayable",
      "type": "constructor"
    },
    {
      "anonymous": false,
      "inputs": [
        {
          "indexed": true,
          "internalType": "address",
          "name": "sender",
          "type": "address"
        },
        {
          "indexed": true,
          "internalType": "address",
          "name": "receiver",
          "type": "address"
        }
      ],
      "name": "FriendRequestSent",
      "type": "event"
    },
    {
      "anonymous": false,
      "inputs": [
        {
          "indexed": true,
          "internalType": "address",
          "name": "sender",
          "type": "address"
        },
        {
          "indexed": true,
          "internalType": "address",
          "name": "receiver",
          "type": "address"
        },
        {
          "indexed": false,
          "internalType": "enum FriendRequestManager.RequestStatus",
          "name": "status",
          "type": "uint8"
        }
      ],
      "name": "FriendRequestUpdated",
      "type": "event"
    },
    {
      "inputs": [
        {
          "internalType": "address",
          "name": "",
          "type": "address"
        },
        {
          "internalType": "uint256",
          "name": "",
          "type": "uint256"
        }
      ],
      "name": "incomingFriendRequests",
      "outputs": [
        {
          "internalType": "address",
          "name": "sender",
          "type": "address"
        },
        {
          "internalType": "address",
          "name": "receiver",
          "type": "address"
        },
        {
          "internalType": "enum FriendRequestManager.RequestStatus",
          "name": "status",
          "type": "uint8"
        }
      ],
      "stateMutability": "view",
      "type": "function",
      "constant": true
    },
    {
      "inputs": [
        {
          "internalType": "address",
          "name": "",
          "type": "address"
        },
        {
          "internalType": "uint256",
          "name": "",
          "type": "uint256"
        }
      ],
      "name": "outgoingFriendRequests",
      "outputs": [
        {
          "internalType": "address",
          "name": "sender",
          "type": "address"
        },
        {
          "internalType": "address",
          "name": "receiver",
          "type": "address"
        },
        {
          "internalType": "enum FriendRequestManager.RequestStatus",
          "name": "status",
          "type": "uint8"
        }
      ],
      "stateMutability": "view",
      "type": "function",
      "constant": true
    },
    {
      "inputs": [],
      "name": "relationshipManagerContractAddress",
      "outputs": [
        {
          "internalType": "address",
          "name": "",
          "type": "address"
        }
      ],
      "stateMutability": "view",
      "type": "function",
      "constant": true
    },
    {
      "inputs": [
        {
          "internalType": "address",
          "name": "_receiver",
          "type": "address"
        }
      ],
      "name": "sendFriendRequest",
      "outputs": [],
      "stateMutability": "nonpayable",
      "type": "function"
    },
    {
      "inputs": [
        {
          "internalType": "address",
          "name": "_sender",
          "type": "address"
        },
        {
          "internalType": "bool",
          "name": "_accept",
          "type": "bool"
        }
      ],
      "name": "respondToFriendRequest",
      "outputs": [],
      "stateMutability": "nonpayable",
      "type": "function"
    },
    {
      "inputs": [],
      "name": "getIncomingFriendRequests",
      "outputs": [
        {
          "components": [
            {
              "internalType": "address",
              "name": "sender",
              "type": "address"
            },
            {
              "internalType": "address",
              "name": "receiver",
              "type": "address"
            },
            {
              "internalType": "enum FriendRequestManager.RequestStatus",
              "name": "status",
              "type": "uint8"
            }
          ],
          "internalType": "struct FriendRequestManager.FriendRequest[]",
          "name": "",
          "type": "tuple[]"
        }
      ],
      "stateMutability": "view",
      "type": "function",
      "constant": true
    },
    {
      "inputs": [],
      "name": "getOutgoingFriendRequests",
      "outputs": [
        {
          "components": [
            {
              "internalType": "address",
              "name": "sender",
              "type": "address"
            },
            {
              "internalType": "address",
              "name": "receiver",
              "type": "address"
            },
            {
              "internalType": "enum FriendRequestManager.RequestStatus",
              "name": "status",
              "type": "uint8"
            }
          ],
          "internalType": "struct FriendRequestManager.FriendRequest[]",
          "name": "",
          "type": "tuple[]"
        }
      ],
      "stateMutability": "view",
      "type": "function",
      "constant": true
    }
  ],
  "bytecode": "0x60806040523480156200001157600080fd5b506040516200195e3803806200195e83398181016040528101906200003791906200015a565b600073ffffffffffffffffffffffffffffffffffffffff168173ffffffffffffffffffffffffffffffffffffffff1603620000a9576040517f08c379a0000000000000000000000000000000000000000000000000000000008152600401620000a09062000213565b60405180910390fd5b806000806101000a81548173ffffffffffffffffffffffffffffffffffffffff021916908373ffffffffffffffffffffffffffffffffffffffff1602179055505062000235565b600080fd5b600073ffffffffffffffffffffffffffffffffffffffff82169050919050565b60006200012282620000f5565b9050919050565b620001348162000115565b81146200014057600080fd5b50565b600081519050620001548162000129565b92915050565b600060208284031215620001735762000172620000f0565b5b6000620001838482850162000143565b91505092915050565b600082825260208201905092915050565b7f496e76616c69642072656c6174696f6e73686970206d616e6167657220636f6e60008201527f7472616374206164647265737300000000000000000000000000000000000000602082015250565b6000620001fb602d836200018c565b915062000208826200019d565b604082019050919050565b600060208201905081810360008301526200022e81620001ec565b9050919050565b61171980620002456000396000f3fe608060405234801561001057600080fd5b506004361061007d5760003560e01c8063837b770a1161005b578063837b770a146100da57806384609d95146100f6578063a1ba65aa14610114578063f3a0503c146101465761007d565b806312ef5baf146100825780631f0ae64f1461009e578063439f6481146100bc575b600080fd5b61009c60048036038101906100979190611097565b610178565b005b6100a661055c565b6040516100b391906110e6565b60405180910390f35b6100c4610580565b6040516100d19190611278565b60405180910390f35b6100f460048036038101906100ef919061129a565b610703565b005b6100fe610ac9565b60405161010b9190611278565b60405180910390f35b61012e600480360381019061012991906112fd565b610c4c565b60405161013d9392919061134c565b60405180910390f35b610160600480360381019061015b91906112fd565b610ce0565b60405161016f9392919061134c565b60405180910390f35b6000600160003373ffffffffffffffffffffffffffffffffffffffff1673ffffffffffffffffffffffffffffffffffffffff16815260200190815260200160002090506000600260008573ffffffffffffffffffffffffffffffffffffffff1673ffffffffffffffffffffffffffffffffffffffff1681526020019081526020016000209050600061020a8386610d74565b905082805490508110610252576040517f08c379a0000000000000000000000000000000000000000000000000000000008152600401610249906113e0565b60405180910390fd5b600060028111156102665761026561113c565b5b83828154811061027957610278611400565b5b906000526020600020906002020160010160149054906101000a900460ff1660028111156102aa576102a961113c565b5b146102ea576040517f08c379a00000000000000000000000000000000000000000000000000000000081526004016102e1906114a1565b60405180910390fd5b836102f65760026102f9565b60015b83828154811061030c5761030b611400565b5b906000526020600020906002020160010160146101000a81548160ff0219169083600281111561033f5761033e61113c565b5b021790555083610350576002610353565b60015b82828154811061036657610365611400565b5b906000526020600020906002020160010160146101000a81548160ff021916908360028111156103995761039861113c565b5b021790555083156104bf57600073ffffffffffffffffffffffffffffffffffffffff1660008054906101000a900473ffffffffffffffffffffffffffffffffffffffff1673ffffffffffffffffffffffffffffffffffffffff1603610433576040517f08c379a000000000000000000000000000000000000000000000000000000000815260040161042a90611533565b60405180910390fd5b60008054906101000a900473ffffffffffffffffffffffffffffffffffffffff1673ffffffffffffffffffffffffffffffffffffffff1663d7a1cfe1866040518263ffffffff1660e01b815260040161048c91906110e6565b600060405180830381600087803b1580156104a657600080fd5b505af11580156104ba573d6000803e3d6000fd5b505050505b3373ffffffffffffffffffffffffffffffffffffffff168573ffffffffffffffffffffffffffffffffffffffff167faebc990def601d1e82c25ce55a8557c37a68b8a51ec98544b2b08d789f717a8d85848154811061052157610520611400565b5b906000526020600020906002020160010160149054906101000a900460ff1660405161054d9190611553565b60405180910390a35050505050565b60008054906101000a900473ffffffffffffffffffffffffffffffffffffffff1681565b6060600160003373ffffffffffffffffffffffffffffffffffffffff1673ffffffffffffffffffffffffffffffffffffffff168152602001908152602001600020805480602002602001604051908101604052809291908181526020016000905b828210156106fa57838290600052602060002090600202016040518060600160405290816000820160009054906101000a900473ffffffffffffffffffffffffffffffffffffffff1673ffffffffffffffffffffffffffffffffffffffff1673ffffffffffffffffffffffffffffffffffffffff1681526020016001820160009054906101000a900473ffffffffffffffffffffffffffffffffffffffff1673ffffffffffffffffffffffffffffffffffffffff1673ffffffffffffffffffffffffffffffffffffffff1681526020016001820160149054906101000a900460ff1660028111156106d5576106d461113c565b5b60028111156106e7576106e661113c565b5b81525050815260200190600101906105e1565b50505050905090565b8073ffffffffffffffffffffffffffffffffffffffff163373ffffffffffffffffffffffffffffffffffffffff1603610771576040517f08c379a0000000000000000000000000000000000000000000000000000000008152600401610768906115e0565b60405180910390fd5b61077b3382610ea5565b156107bb576040517f08c379a00000000000000000000000000000000000000000000000000000000081526004016107b29061164c565b60405180910390fd5b600060405180606001604052803373ffffffffffffffffffffffffffffffffffffffff1681526020018373ffffffffffffffffffffffffffffffffffffffff168152602001600060028111156108145761081361113c565b5b8152509050600260003373ffffffffffffffffffffffffffffffffffffffff1673ffffffffffffffffffffffffffffffffffffffff16815260200190815260200160002081908060018154018082558091505060019003906000526020600020906002020160009091909190915060008201518160000160006101000a81548173ffffffffffffffffffffffffffffffffffffffff021916908373ffffffffffffffffffffffffffffffffffffffff16021790555060208201518160010160006101000a81548173ffffffffffffffffffffffffffffffffffffffff021916908373ffffffffffffffffffffffffffffffffffffffff16021790555060408201518160010160146101000a81548160ff0219169083600281111561093b5761093a61113c565b5b02179055505050600160008373ffffffffffffffffffffffffffffffffffffffff1673ffffffffffffffffffffffffffffffffffffffff16815260200190815260200160002081908060018154018082558091505060019003906000526020600020906002020160009091909190915060008201518160000160006101000a81548173ffffffffffffffffffffffffffffffffffffffff021916908373ffffffffffffffffffffffffffffffffffffffff16021790555060208201518160010160006101000a81548173ffffffffffffffffffffffffffffffffffffffff021916908373ffffffffffffffffffffffffffffffffffffffff16021790555060408201518160010160146101000a81548160ff02191690836002811115610a6457610a6361113c565b5b021790555050508173ffffffffffffffffffffffffffffffffffffffff163373ffffffffffffffffffffffffffffffffffffffff167f2b4b3b31b7040b3566331c8302dff4a575764757795335d5e9184fd4174c33b260405160405180910390a35050565b6060600260003373ffffffffffffffffffffffffffffffffffffffff1673ffffffffffffffffffffffffffffffffffffffff168152602001908152602001600020805480602002602001604051908101604052809291908181526020016000905b82821015610c4357838290600052602060002090600202016040518060600160405290816000820160009054906101000a900473ffffffffffffffffffffffffffffffffffffffff1673ffffffffffffffffffffffffffffffffffffffff1673ffffffffffffffffffffffffffffffffffffffff1681526020016001820160009054906101000a900473ffffffffffffffffffffffffffffffffffffffff1673ffffffffffffffffffffffffffffffffffffffff1673ffffffffffffffffffffffffffffffffffffffff1681526020016001820160149054906101000a900460ff166002811115610c1e57610c1d61113c565b5b6002811115610c3057610c2f61113c565b5b8152505081526020019060010190610b2a565b50505050905090565b60026020528160005260406000208181548110610c6857600080fd5b9060005260206000209060020201600091509150508060000160009054906101000a900473ffffffffffffffffffffffffffffffffffffffff16908060010160009054906101000a900473ffffffffffffffffffffffffffffffffffffffff16908060010160149054906101000a900460ff16905083565b60016020528160005260406000208181548110610cfc57600080fd5b9060005260206000209060020201600091509150508060000160009054906101000a900473ffffffffffffffffffffffffffffffffffffffff16908060010160009054906101000a900473ffffffffffffffffffffffffffffffffffffffff16908060010160149054906101000a900460ff16905083565b600080600090505b8380549050811015610e96578273ffffffffffffffffffffffffffffffffffffffff16848281548110610db257610db1611400565b5b906000526020600020906002020160000160009054906101000a900473ffffffffffffffffffffffffffffffffffffffff1673ffffffffffffffffffffffffffffffffffffffff161480610e7557508273ffffffffffffffffffffffffffffffffffffffff16848281548110610e2b57610e2a611400565b5b906000526020600020906002020160010160009054906101000a900473ffffffffffffffffffffffffffffffffffffffff1673ffffffffffffffffffffffffffffffffffffffff16145b15610e835780915050610e9f565b8080610e8e9061169b565b915050610d7c565b50828054905090505b92915050565b600080600260008573ffffffffffffffffffffffffffffffffffffffff1673ffffffffffffffffffffffffffffffffffffffff168152602001908152602001600020905060005b8180549050811015610fef578373ffffffffffffffffffffffffffffffffffffffff16828281548110610f2257610f21611400565b5b906000526020600020906002020160010160009054906101000a900473ffffffffffffffffffffffffffffffffffffffff1673ffffffffffffffffffffffffffffffffffffffff16148015610fcc575060006002811115610f8657610f8561113c565b5b828281548110610f9957610f98611400565b5b906000526020600020906002020160010160149054906101000a900460ff166002811115610fca57610fc961113c565b5b145b15610fdc57600192505050610ff6565b8080610fe79061169b565b915050610eec565b5060009150505b92915050565b600080fd5b600073ffffffffffffffffffffffffffffffffffffffff82169050919050565b600061102c82611001565b9050919050565b61103c81611021565b811461104757600080fd5b50565b60008135905061105981611033565b92915050565b60008115159050919050565b6110748161105f565b811461107f57600080fd5b50565b6000813590506110918161106b565b92915050565b600080604083850312156110ae576110ad610ffc565b5b60006110bc8582860161104a565b92505060206110cd85828601611082565b9150509250929050565b6110e081611021565b82525050565b60006020820190506110fb60008301846110d7565b92915050565b600081519050919050565b600082825260208201905092915050565b6000819050602082019050919050565b61113681611021565b82525050565b7f4e487b7100000000000000000000000000000000000000000000000000000000600052602160045260246000fd5b6003811061117c5761117b61113c565b5b50565b600081905061118d8261116b565b919050565b600061119d8261117f565b9050919050565b6111ad81611192565b82525050565b6060820160008201516111c9600085018261112d565b5060208201516111dc602085018261112d565b5060408201516111ef60408501826111a4565b50505050565b600061120183836111b3565b60608301905092915050565b6000602082019050919050565b600061122582611101565b61122f818561110c565b935061123a8361111d565b8060005b8381101561126b57815161125288826111f5565b975061125d8361120d565b92505060018101905061123e565b5085935050505092915050565b60006020820190508181036000830152611292818461121a565b905092915050565b6000602082840312156112b0576112af610ffc565b5b60006112be8482850161104a565b91505092915050565b6000819050919050565b6112da816112c7565b81146112e557600080fd5b50565b6000813590506112f7816112d1565b92915050565b6000806040838503121561131457611313610ffc565b5b60006113228582860161104a565b9250506020611333858286016112e8565b9150509250929050565b61134681611192565b82525050565b600060608201905061136160008301866110d7565b61136e60208301856110d7565b61137b604083018461133d565b949350505050565b600082825260208201905092915050565b7f467269656e642072657175657374206e6f7420666f756e640000000000000000600082015250565b60006113ca601883611383565b91506113d582611394565b602082019050919050565b600060208201905081810360008301526113f9816113bd565b9050919050565b7f4e487b7100000000000000000000000000000000000000000000000000000000600052603260045260246000fd5b7f467269656e6420726571756573742068617320616c7265616479206265656e2060008201527f726573706f6e64656420746f0000000000000000000000000000000000000000602082015250565b600061148b602c83611383565b91506114968261142f565b604082019050919050565b600060208201905081810360008301526114ba8161147e565b9050919050565b7f52656c6174696f6e73686970206d616e6167657220636f6e747261637420616460008201527f6472657373206e6f742073657400000000000000000000000000000000000000602082015250565b600061151d602d83611383565b9150611528826114c1565b604082019050919050565b6000602082019050818103600083015261154c81611510565b9050919050565b6000602082019050611568600083018461133d565b92915050565b7f43616e6e6f742073656e6420667269656e64207265717565737420746f20796f60008201527f757273656c660000000000000000000000000000000000000000000000000000602082015250565b60006115ca602683611383565b91506115d58261156e565b604082019050919050565b600060208201905081810360008301526115f9816115bd565b9050919050565b7f467269656e64207265717565737420616c726561647920657869737473000000600082015250565b6000611636601d83611383565b915061164182611600565b602082019050919050565b6000602082019050818103600083015261166581611629565b9050919050565b7f4e487b7100000000000000000000000000000000000000000000000000000000600052601160045260246000fd5b60006116a6826112c7565b91507fffffffffffffffffffffffffffffffffffffffffffffffffffffffffffffffff82036116d8576116d761166c565b5b60018201905091905056fea26469706673582212208703ca257a631818e5de96911891be2e500a19c10e0d440287717f57f1cdabdc64736f6c63430008130033",
  "immutableReferences": {},
  "source": "// SPDX-License-Identifier: MIT\npragma solidity ^0.8.19;\n\ninterface IUserRelationshipManager {\n    function addFriend(address _friend) external;\n}\n\n/**\n * @title FriendRequestManager\n * @dev A smart contract for managing friend requests between users.\n */\ncontract FriendRequestManager {\n\n    // Address of the UserRelationshipManager contract\n    address public relationshipManagerContractAddress;\n\n    /**\n     * @dev Constructor that sets the address of the UserRelationshipManager contract.\n     * @param _relationshipManagerContractAddress The address of the UserRelationshipManager contract.\n     */\n    constructor(address _relationshipManagerContractAddress) {\n        require(_relationshipManagerContractAddress != address(0), \"Invalid relationship manager contract address\");\n        relationshipManagerContractAddress = _relationshipManagerContractAddress;\n    }\n\n    // Enum to represent the status of a friend request\n    enum RequestStatus {\n        Pending,\n        Accepted,\n        Rejected\n    }\n\n    // Struct to represent a friend request\n    struct FriendRequest {\n        address sender;\n        address receiver;\n        RequestStatus status;\n    }\n\n    // Mapping to store friend requests\n    mapping(address => FriendRequest[]) public incomingFriendRequests;\n    mapping(address => FriendRequest[]) public outgoingFriendRequests;\n\n    // Event emitted when a new friend request is sent\n    event FriendRequestSent(address indexed sender, address indexed receiver);\n\n    // Event emitted when a friend request is accepted or rejected\n    event FriendRequestUpdated(address indexed sender, address indexed receiver, RequestStatus status);\n\n    /**\n     * @dev Sends a friend request to another user.\n     * @param _receiver The address of the user to whom the friend request is sent.\n     */\n    function sendFriendRequest(address _receiver) external {\n        require(msg.sender != _receiver, \"Cannot send friend request to yourself\");\n\n        // Check if a friend request already exists\n        require(!friendRequestExists(msg.sender, _receiver), \"Friend request already exists\");\n\n        // Create a new friend request\n        FriendRequest memory newRequest = FriendRequest({\n            sender: msg.sender,\n            receiver: _receiver,\n            status: RequestStatus.Pending\n        });\n\n        // Add the friend request to the sender's outgoing requests and receiver's incoming requests\n        outgoingFriendRequests[msg.sender].push(newRequest);\n        incomingFriendRequests[_receiver].push(newRequest);\n\n        // Emit event\n        emit FriendRequestSent(msg.sender, _receiver);\n    }\n\n    /**\n     * @dev Responds to a friend request by accepting or rejecting it.\n     * @param _sender The address of the user who sent the friend request.\n     * @param _accept A boolean indicating whether the friend request is accepted (true) or rejected (false).\n     */\n    function respondToFriendRequest(address _sender, bool _accept) external {\n        // Find the friend request\n        FriendRequest[] storage incomingRequests = incomingFriendRequests[msg.sender];\n        FriendRequest[] storage outgoingRequests = outgoingFriendRequests[_sender];\n\n        uint256 index = findFriendRequestIndex(incomingRequests, _sender);\n\n        require(index < incomingRequests.length, \"Friend request not found\");\n        require(incomingRequests[index].status == RequestStatus.Pending, \"Friend request has already been responded to\");\n\n        // Update the status of the friend request\n        incomingRequests[index].status = _accept ? RequestStatus.Accepted : RequestStatus.Rejected;\n        outgoingRequests[index].status = _accept ? RequestStatus.Accepted : RequestStatus.Rejected;\n\n        // If the friend request is accepted, add users as friends using UserRelationshipManager\n        if (_accept) {\n            // Ensure that the UserRelationshipManager contract address is set\n            require(relationshipManagerContractAddress != address(0), \"Relationship manager contract address not set\");\n\n            // Call addFriend in UserRelationshipManager to establish the friendship\n            IUserRelationshipManager(relationshipManagerContractAddress).addFriend(_sender);\n        }\n\n        // Emit event\n        emit FriendRequestUpdated(_sender, msg.sender, incomingRequests[index].status);\n    }\n\n    /**\n     * @dev Gets the incoming friend requests for the caller.\n     * @return An array of incoming friend requests.\n     */\n    function getIncomingFriendRequests() external view returns (FriendRequest[] memory) {\n        return incomingFriendRequests[msg.sender];\n    }\n\n    /**\n     * @dev Gets the outgoing friend requests for the caller.\n     * @return An array of outgoing friend requests.\n     */\n    function getOutgoingFriendRequests() external view returns (FriendRequest[] memory) {\n        return outgoingFriendRequests[msg.sender];\n    }\n\n    /**\n     * @dev Checks if a friend request already exists.\n     * @param _sender The address of the user who sent the friend request.\n     * @param _receiver The address of the user who received the friend request.\n     * @return A boolean indicating whether the friend request already exists.\n     */\n    function friendRequestExists(address _sender, address _receiver) internal view returns (bool) {\n        FriendRequest[] storage outgoingRequests = outgoingFriendRequests[_sender];\n\n        for (uint256 i = 0; i < outgoingRequests.length; i++) {\n            if (outgoingRequests[i].receiver == _receiver && outgoingRequests[i].status == RequestStatus.Pending) {\n                return true;\n            }\n        }\n\n        return false;\n    }\n\n    /**\n     * @dev Finds the index of a friend request.\n     * @param _requests The array of friend requests to search.\n     * @param _target The address of the user involved in the friend request.\n     * @return The index of the friend request in the array.\n     */\n    function findFriendRequestIndex(FriendRequest[] storage _requests, address _target) internal view returns (uint256) {\n        for (uint256 i = 0; i < _requests.length; i++) {\n            if (_requests[i].sender == _target || _requests[i].receiver == _target) {\n                return i;\n            }\n        }\n        return _requests.length;\n    }\n}\n",
  "sourcePath": "/home/hardik/code/node/DappComm/src/app/contracts/FriendRequestManager.sol",
  "compiler": {
    "name": "solc",
    "version": "0.8.19+commit.7dd6d404.Emscripten.clang"
  },
  "schemaVersion": "3.4.16",
  "updatedAt": "2024-01-27T15:13:32.599Z",
  "networkType": "ethereum",
  "devdoc": {
    "details": "A smart contract for managing friend requests between users.",
    "kind": "dev",
    "methods": {
      "constructor": {
        "details": "Constructor that sets the address of the UserRelationshipManager contract.",
        "params": {
          "_relationshipManagerContractAddress": "The address of the UserRelationshipManager contract."
        }
      },
      "getIncomingFriendRequests()": {
        "details": "Gets the incoming friend requests for the caller.",
        "returns": {
          "_0": "An array of incoming friend requests."
        }
      },
      "getOutgoingFriendRequests()": {
        "details": "Gets the outgoing friend requests for the caller.",
        "returns": {
          "_0": "An array of outgoing friend requests."
        }
      },
      "respondToFriendRequest(address,bool)": {
        "details": "Responds to a friend request by accepting or rejecting it.",
        "params": {
          "_accept": "A boolean indicating whether the friend request is accepted (true) or rejected (false).",
          "_sender": "The address of the user who sent the friend request."
        }
      },
      "sendFriendRequest(address)": {
        "details": "Sends a friend request to another user.",
        "params": {
          "_receiver": "The address of the user to whom the friend request is sent."
        }
      }
    },
    "title": "FriendRequestManager",
    "version": 1
  },
  "userdoc": {
    "kind": "user",
    "methods": {},
    "version": 1
  }
}