{
  "contractName": "MessagingSystem",
  "abi": [
    {
      "anonymous": false,
      "inputs": [
        {
          "indexed": true,
          "internalType": "address",
          "name": "sender",
          "type": "address"
        },
        {
          "indexed": true,
          "internalType": "address",
          "name": "receiver",
          "type": "address"
        },
        {
          "indexed": false,
          "internalType": "string",
          "name": "contentHash",
          "type": "string"
        },
        {
          "indexed": false,
          "internalType": "bool",
          "name": "isEncrypted",
          "type": "bool"
        },
        {
          "indexed": false,
          "internalType": "uint256",
          "name": "timestamp",
          "type": "uint256"
        }
      ],
      "name": "MessageSent",
      "type": "event"
    },
    {
      "inputs": [
        {
          "internalType": "address",
          "name": "",
          "type": "address"
        },
        {
          "internalType": "uint256",
          "name": "",
          "type": "uint256"
        }
      ],
      "name": "userMessages",
      "outputs": [
        {
          "internalType": "address",
          "name": "sender",
          "type": "address"
        },
        {
          "internalType": "address",
          "name": "receiver",
          "type": "address"
        },
        {
          "internalType": "string",
          "name": "contentHash",
          "type": "string"
        },
        {
          "internalType": "bool",
          "name": "isEncrypted",
          "type": "bool"
        },
        {
          "internalType": "uint256",
          "name": "timestamp",
          "type": "uint256"
        }
      ],
      "stateMutability": "view",
      "type": "function",
      "constant": true
    },
    {
      "inputs": [
        {
          "internalType": "address",
          "name": "_receiver",
          "type": "address"
        },
        {
          "internalType": "string",
          "name": "_contentHash",
          "type": "string"
        },
        {
          "internalType": "bool",
          "name": "_isEncrypted",
          "type": "bool"
        }
      ],
      "name": "sendMessage",
      "outputs": [],
      "stateMutability": "nonpayable",
      "type": "function"
    },
    {
      "inputs": [],
      "name": "getUserMessages",
      "outputs": [
        {
          "components": [
            {
              "internalType": "address",
              "name": "sender",
              "type": "address"
            },
            {
              "internalType": "address",
              "name": "receiver",
              "type": "address"
            },
            {
              "internalType": "string",
              "name": "contentHash",
              "type": "string"
            },
            {
              "internalType": "bool",
              "name": "isEncrypted",
              "type": "bool"
            },
            {
              "internalType": "uint256",
              "name": "timestamp",
              "type": "uint256"
            }
          ],
          "internalType": "struct MessagingSystem.Message[]",
          "name": "",
          "type": "tuple[]"
        }
      ],
      "stateMutability": "view",
      "type": "function",
      "constant": true
    }
  ],
  "bytecode": "0x608060405234801561001057600080fd5b50611110806100206000396000f3fe608060405234801561001057600080fd5b50600436106100415760003560e01c80634674f06014610046578063792f6183146100625780639428cda314610080575b600080fd5b610060600480360381019061005b9190610970565b6100b4565b005b61006a61045a565b6040516100779190610bcd565b60405180910390f35b61009a60048036038101906100959190610c1b565b610658565b6040516100ab959493929190610cd2565b60405180910390f35b8273ffffffffffffffffffffffffffffffffffffffff163373ffffffffffffffffffffffffffffffffffffffff1603610122576040517f08c379a000000000000000000000000000000000000000000000000000000000815260040161011990610d9e565b60405180910390fd5b60006040518060a001604052803373ffffffffffffffffffffffffffffffffffffffff1681526020018573ffffffffffffffffffffffffffffffffffffffff16815260200184815260200183151581526020014281525090506000803373ffffffffffffffffffffffffffffffffffffffff1673ffffffffffffffffffffffffffffffffffffffff16815260200190815260200160002081908060018154018082558091505060019003906000526020600020906005020160009091909190915060008201518160000160006101000a81548173ffffffffffffffffffffffffffffffffffffffff021916908373ffffffffffffffffffffffffffffffffffffffff16021790555060208201518160010160006101000a81548173ffffffffffffffffffffffffffffffffffffffff021916908373ffffffffffffffffffffffffffffffffffffffff16021790555060408201518160020190816102869190610fca565b5060608201518160030160006101000a81548160ff0219169083151502179055506080820151816004015550506000808573ffffffffffffffffffffffffffffffffffffffff1673ffffffffffffffffffffffffffffffffffffffff16815260200190815260200160002081908060018154018082558091505060019003906000526020600020906005020160009091909190915060008201518160000160006101000a81548173ffffffffffffffffffffffffffffffffffffffff021916908373ffffffffffffffffffffffffffffffffffffffff16021790555060208201518160010160006101000a81548173ffffffffffffffffffffffffffffffffffffffff021916908373ffffffffffffffffffffffffffffffffffffffff16021790555060408201518160020190816103be9190610fca565b5060608201518160030160006101000a81548160ff0219169083151502179055506080820151816004015550508373ffffffffffffffffffffffffffffffffffffffff163373ffffffffffffffffffffffffffffffffffffffff167f9709b54d7685400825aee4e8e458e80589e25631459d0d33cdebd05859d99bf485854260405161044c9392919061109c565b60405180910390a350505050565b60606000803373ffffffffffffffffffffffffffffffffffffffff1673ffffffffffffffffffffffffffffffffffffffff168152602001908152602001600020805480602002602001604051908101604052809291908181526020016000905b8282101561064f57838290600052602060002090600502016040518060a00160405290816000820160009054906101000a900473ffffffffffffffffffffffffffffffffffffffff1673ffffffffffffffffffffffffffffffffffffffff1673ffffffffffffffffffffffffffffffffffffffff1681526020016001820160009054906101000a900473ffffffffffffffffffffffffffffffffffffffff1673ffffffffffffffffffffffffffffffffffffffff1673ffffffffffffffffffffffffffffffffffffffff16815260200160028201805461059990610ded565b80601f01602080910402602001604051908101604052809291908181526020018280546105c590610ded565b80156106125780601f106105e757610100808354040283529160200191610612565b820191906000526020600020905b8154815290600101906020018083116105f557829003601f168201915b505050505081526020016003820160009054906101000a900460ff16151515158152602001600482015481525050815260200190600101906104ba565b50505050905090565b6000602052816000526040600020818154811061067457600080fd5b9060005260206000209060050201600091509150508060000160009054906101000a900473ffffffffffffffffffffffffffffffffffffffff16908060010160009054906101000a900473ffffffffffffffffffffffffffffffffffffffff16908060020180546106e490610ded565b80601f016020809104026020016040519081016040528092919081815260200182805461071090610ded565b801561075d5780601f106107325761010080835404028352916020019161075d565b820191906000526020600020905b81548152906001019060200180831161074057829003601f168201915b5050505050908060030160009054906101000a900460ff16908060040154905085565b6000604051905090565b600080fd5b600080fd5b600073ffffffffffffffffffffffffffffffffffffffff82169050919050565b60006107bf82610794565b9050919050565b6107cf816107b4565b81146107da57600080fd5b50565b6000813590506107ec816107c6565b92915050565b600080fd5b600080fd5b6000601f19601f8301169050919050565b7f4e487b7100000000000000000000000000000000000000000000000000000000600052604160045260246000fd5b610845826107fc565b810181811067ffffffffffffffff821117156108645761086361080d565b5b80604052505050565b6000610877610780565b9050610883828261083c565b919050565b600067ffffffffffffffff8211156108a3576108a261080d565b5b6108ac826107fc565b9050602081019050919050565b82818337600083830152505050565b60006108db6108d684610888565b61086d565b9050828152602081018484840111156108f7576108f66107f7565b5b6109028482856108b9565b509392505050565b600082601f83011261091f5761091e6107f2565b5b813561092f8482602086016108c8565b91505092915050565b60008115159050919050565b61094d81610938565b811461095857600080fd5b50565b60008135905061096a81610944565b92915050565b6000806000606084860312156109895761098861078a565b5b6000610997868287016107dd565b935050602084013567ffffffffffffffff8111156109b8576109b761078f565b5b6109c48682870161090a565b92505060406109d58682870161095b565b9150509250925092565b600081519050919050565b600082825260208201905092915050565b6000819050602082019050919050565b610a14816107b4565b82525050565b600081519050919050565b600082825260208201905092915050565b60005b83811015610a54578082015181840152602081019050610a39565b60008484015250505050565b6000610a6b82610a1a565b610a758185610a25565b9350610a85818560208601610a36565b610a8e816107fc565b840191505092915050565b610aa281610938565b82525050565b6000819050919050565b610abb81610aa8565b82525050565b600060a083016000830151610ad96000860182610a0b565b506020830151610aec6020860182610a0b565b5060408301518482036040860152610b048282610a60565b9150506060830151610b196060860182610a99565b506080830151610b2c6080860182610ab2565b508091505092915050565b6000610b438383610ac1565b905092915050565b6000602082019050919050565b6000610b63826109df565b610b6d81856109ea565b935083602082028501610b7f856109fb565b8060005b85811015610bbb5784840389528151610b9c8582610b37565b9450610ba783610b4b565b925060208a01995050600181019050610b83565b50829750879550505050505092915050565b60006020820190508181036000830152610be78184610b58565b905092915050565b610bf881610aa8565b8114610c0357600080fd5b50565b600081359050610c1581610bef565b92915050565b60008060408385031215610c3257610c3161078a565b5b6000610c40858286016107dd565b9250506020610c5185828601610c06565b9150509250929050565b610c64816107b4565b82525050565b600082825260208201905092915050565b6000610c8682610a1a565b610c908185610c6a565b9350610ca0818560208601610a36565b610ca9816107fc565b840191505092915050565b610cbd81610938565b82525050565b610ccc81610aa8565b82525050565b600060a082019050610ce76000830188610c5b565b610cf46020830187610c5b565b8181036040830152610d068186610c7b565b9050610d156060830185610cb4565b610d226080830184610cc3565b9695505050505050565b7f43616e6e6f742073656e642061206d65737361676520746f20796f757273656c60008201527f6600000000000000000000000000000000000000000000000000000000000000602082015250565b6000610d88602183610c6a565b9150610d9382610d2c565b604082019050919050565b60006020820190508181036000830152610db781610d7b565b9050919050565b7f4e487b7100000000000000000000000000000000000000000000000000000000600052602260045260246000fd5b60006002820490506001821680610e0557607f821691505b602082108103610e1857610e17610dbe565b5b50919050565b60008190508160005260206000209050919050565b60006020601f8301049050919050565b600082821b905092915050565b600060088302610e807fffffffffffffffffffffffffffffffffffffffffffffffffffffffffffffffff82610e43565b610e8a8683610e43565b95508019841693508086168417925050509392505050565b6000819050919050565b6000610ec7610ec2610ebd84610aa8565b610ea2565b610aa8565b9050919050565b6000819050919050565b610ee183610eac565b610ef5610eed82610ece565b848454610e50565b825550505050565b600090565b610f0a610efd565b610f15818484610ed8565b505050565b5b81811015610f3957610f2e600082610f02565b600181019050610f1b565b5050565b601f821115610f7e57610f4f81610e1e565b610f5884610e33565b81016020851015610f67578190505b610f7b610f7385610e33565b830182610f1a565b50505b505050565b600082821c905092915050565b6000610fa160001984600802610f83565b1980831691505092915050565b6000610fba8383610f90565b9150826002028217905092915050565b610fd382610a1a565b67ffffffffffffffff811115610fec57610feb61080d565b5b610ff68254610ded565b611001828285610f3d565b600060209050601f8311600181146110345760008415611022578287015190505b61102c8582610fae565b865550611094565b601f19841661104286610e1e565b60005b8281101561106a57848901518255600182019150602085019450602081019050611045565b868310156110875784890151611083601f891682610f90565b8355505b6001600288020188555050505b505050505050565b600060608201905081810360008301526110b68186610c7b565b90506110c56020830185610cb4565b6110d26040830184610cc3565b94935050505056fea2646970667358221220905edf9f1ef1b97e467db0a71bae414197718cdeae227c35c9fd2a0671f9a07364736f6c63430008130033",
  "immutableReferences": {},
  "source": "// SPDX-License-Identifier: MIT\npragma solidity ^0.8.19;\n\n/**\n * @title MessagingSystem\n * @dev A smart contract for facilitating secure and decentralized messaging between users.\n */\ncontract MessagingSystem {\n    // Struct to represent a message\n    struct Message {\n        address sender;\n        address receiver;\n        string contentHash; // IPFS hash or any off-chain storage reference\n        bool isEncrypted; // Indicator for encryption (if needed)\n        uint256 timestamp;\n    }\n\n    // Event emitted when a new message is sent\n    event MessageSent(address indexed sender, address indexed receiver, string contentHash, bool isEncrypted, uint256 timestamp);\n\n    // Mapping to store user messages\n    mapping(address => Message[]) public userMessages;\n\n    /**\n     * @dev Sends a message to another user.\n     * @param _receiver The address of the user who will receive the message.\n     * @param _contentHash The IPFS hash or off-chain storage reference of the message content.\n     * @param _isEncrypted A boolean indicating whether the message is encrypted.\n     */\n    function sendMessage(address _receiver, string memory _contentHash, bool _isEncrypted) external {\n        require(msg.sender != _receiver, \"Cannot send a message to yourself\");\n\n        // Create a new message\n        Message memory newMessage = Message({\n            sender: msg.sender,\n            receiver: _receiver,\n            contentHash: _contentHash,\n            isEncrypted: _isEncrypted,\n            timestamp: block.timestamp\n        });\n\n        // Add the message to both sender's and receiver's message history\n        userMessages[msg.sender].push(newMessage);\n        userMessages[_receiver].push(newMessage);\n\n        // Emit event\n        emit MessageSent(msg.sender, _receiver, _contentHash, _isEncrypted, block.timestamp);\n    }\n\n    /**\n     * @dev Retrieves the messages of the calling user.\n     * @return An array of Message structures representing the user's messages.\n     */\n    function getUserMessages() external view returns (Message[] memory) {\n        return userMessages[msg.sender];\n    }\n}\n",
  "sourcePath": "/workspaces/DappComm/src/app/contracts/MessagingSystem.sol",
  "compiler": {
    "name": "solc",
    "version": "0.8.19+commit.7dd6d404.Emscripten.clang"
  },
  "schemaVersion": "3.4.16",
  "updatedAt": "2024-01-24T17:45:55.764Z",
  "networkType": "ethereum",
  "devdoc": {
    "details": "A smart contract for facilitating secure and decentralized messaging between users.",
    "kind": "dev",
    "methods": {
      "getUserMessages()": {
        "details": "Retrieves the messages of the calling user.",
        "returns": {
          "_0": "An array of Message structures representing the user's messages."
        }
      },
      "sendMessage(address,string,bool)": {
        "details": "Sends a message to another user.",
        "params": {
          "_contentHash": "The IPFS hash or off-chain storage reference of the message content.",
          "_isEncrypted": "A boolean indicating whether the message is encrypted.",
          "_receiver": "The address of the user who will receive the message."
        }
      }
    },
    "title": "MessagingSystem",
    "version": 1
  },
  "userdoc": {
    "kind": "user",
    "methods": {},
    "version": 1
  }
}