{
  "contractName": "UserRegistery",
  "abi": [
    {
      "anonymous": false,
      "inputs": [
        {
          "indexed": true,
          "internalType": "address",
          "name": "userAddress",
          "type": "address"
        },
        {
          "indexed": false,
          "internalType": "string",
          "name": "username",
          "type": "string"
        },
        {
          "indexed": false,
          "internalType": "string",
          "name": "displayName",
          "type": "string"
        }
      ],
      "name": "UserRegistered",
      "type": "event"
    },
    {
      "inputs": [
        {
          "internalType": "address",
          "name": "",
          "type": "address"
        }
      ],
      "name": "users",
      "outputs": [
        {
          "internalType": "string",
          "name": "username",
          "type": "string"
        },
        {
          "internalType": "string",
          "name": "displayName",
          "type": "string"
        }
      ],
      "stateMutability": "view",
      "type": "function",
      "constant": true
    },
    {
      "inputs": [
        {
          "internalType": "string",
          "name": "_username",
          "type": "string"
        },
        {
          "internalType": "string",
          "name": "_displayName",
          "type": "string"
        }
      ],
      "name": "registerUser",
      "outputs": [],
      "stateMutability": "nonpayable",
      "type": "function"
    },
    {
      "inputs": [
        {
          "internalType": "address",
          "name": "_userAddress",
          "type": "address"
        }
      ],
      "name": "getUserProfileByAddress",
      "outputs": [
        {
          "internalType": "string",
          "name": "",
          "type": "string"
        },
        {
          "internalType": "string",
          "name": "",
          "type": "string"
        }
      ],
      "stateMutability": "view",
      "type": "function",
      "constant": true
    },
    {
      "inputs": [
        {
          "internalType": "string",
          "name": "_username",
          "type": "string"
        }
      ],
      "name": "getUserProfile",
      "outputs": [
        {
          "internalType": "string",
          "name": "",
          "type": "string"
        },
        {
          "internalType": "string",
          "name": "",
          "type": "string"
        }
      ],
      "stateMutability": "view",
      "type": "function",
      "constant": true
    },
    {
      "inputs": [],
      "name": "getAllUserAddresses",
      "outputs": [
        {
          "internalType": "address[]",
          "name": "",
          "type": "address[]"
        }
      ],
      "stateMutability": "view",
      "type": "function",
      "constant": true
    }
  ],
  "bytecode": "0x608060405234801561001057600080fd5b506114bb806100206000396000f3fe608060405234801561001057600080fd5b50600436106100575760003560e01c80631d2e4afd1461005c5780632f33002314610078578063a81203b614610096578063a87430ba146100c7578063f807ae91146100f8575b600080fd5b61007660048036038101906100719190610bcb565b610129565b005b6100806103be565b60405161008d9190610d33565b60405180910390f35b6100b060048036038101906100ab9190610d55565b61044c565b6040516100be929190610e1d565b60405180910390f35b6100e160048036038101906100dc9190610e80565b6106e9565b6040516100ef929190610e1d565b60405180910390f35b610112600480360381019061010d9190610e80565b61081d565b604051610120929190610e1d565b60405180910390f35b8160008060003373ffffffffffffffffffffffffffffffffffffffff1673ffffffffffffffffffffffffffffffffffffffff168152602001908152602001600020600001805461017890610edc565b90501480156101d4575060008060003373ffffffffffffffffffffffffffffffffffffffff1673ffffffffffffffffffffffffffffffffffffffff16815260200190815260200160002060010180546101d090610edc565b9050145b610213576040517f08c379a000000000000000000000000000000000000000000000000000000000815260040161020a90610f7f565b60405180910390fd5b6006815111610257576040517f08c379a000000000000000000000000000000000000000000000000000000000815260040161024e90611011565b60405180910390fd5b6102608161098c565b61029f576040517f08c379a00000000000000000000000000000000000000000000000000000000081526004016102969061107d565b60405180910390fd5b60008060003373ffffffffffffffffffffffffffffffffffffffff1673ffffffffffffffffffffffffffffffffffffffff1681526020019081526020016000209050838160000190816102f29190611253565b50828160010190816103049190611253565b506001339080600181540180825580915050600190039060005260206000200160009091909190916101000a81548173ffffffffffffffffffffffffffffffffffffffff021916908373ffffffffffffffffffffffffffffffffffffffff1602179055503373ffffffffffffffffffffffffffffffffffffffff167f92822564bab8864c3a47b34e8d23fbce5c46234eb5da261f94087b995ac0f33b85856040516103b0929190610e1d565b60405180910390a250505050565b6060600180548060200260200160405190810160405280929190818152602001828054801561044257602002820191906000526020600020905b8160009054906101000a900473ffffffffffffffffffffffffffffffffffffffff1673ffffffffffffffffffffffffffffffffffffffff16815260200190600101908083116103f8575b5050505050905090565b60608060005b6001805490508110156106be5760006001828154811061047557610474611325565b5b9060005260206000200160009054906101000a900473ffffffffffffffffffffffffffffffffffffffff16905084805190602001206000808373ffffffffffffffffffffffffffffffffffffffff1673ffffffffffffffffffffffffffffffffffffffff1681526020019081526020016000206000016040516104f891906113f7565b6040518091039020036106aa576000808273ffffffffffffffffffffffffffffffffffffffff1673ffffffffffffffffffffffffffffffffffffffff1681526020019081526020016000206000016000808373ffffffffffffffffffffffffffffffffffffffff1673ffffffffffffffffffffffffffffffffffffffff16815260200190815260200160002060010181805461059390610edc565b80601f01602080910402602001604051908101604052809291908181526020018280546105bf90610edc565b801561060c5780601f106105e15761010080835404028352916020019161060c565b820191906000526020600020905b8154815290600101906020018083116105ef57829003601f168201915b5050505050915080805461061f90610edc565b80601f016020809104026020016040519081016040528092919081815260200182805461064b90610edc565b80156106985780601f1061066d57610100808354040283529160200191610698565b820191906000526020600020905b81548152906001019060200180831161067b57829003601f168201915b505050505090509350935050506106e4565b5080806106b69061143d565b915050610452565b506040518060200160405280600081525060405180602001604052806000815250915091505b915091565b600060205280600052604060002060009150905080600001805461070c90610edc565b80601f016020809104026020016040519081016040528092919081815260200182805461073890610edc565b80156107855780601f1061075a57610100808354040283529160200191610785565b820191906000526020600020905b81548152906001019060200180831161076857829003601f168201915b50505050509080600101805461079a90610edc565b80601f01602080910402602001604051908101604052809291908181526020018280546107c690610edc565b80156108135780601f106107e857610100808354040283529160200191610813565b820191906000526020600020905b8154815290600101906020018083116107f657829003601f168201915b5050505050905082565b60608060008060008573ffffffffffffffffffffffffffffffffffffffff1673ffffffffffffffffffffffffffffffffffffffff1681526020019081526020016000209050806000018160010181805461087690610edc565b80601f01602080910402602001604051908101604052809291908181526020018280546108a290610edc565b80156108ef5780601f106108c4576101008083540402835291602001916108ef565b820191906000526020600020905b8154815290600101906020018083116108d257829003601f168201915b5050505050915080805461090290610edc565b80601f016020809104026020016040519081016040528092919081815260200182805461092e90610edc565b801561097b5780601f106109505761010080835404028352916020019161097b565b820191906000526020600020905b81548152906001019060200180831161095e57829003601f168201915b505050505090509250925050915091565b600080600090505b600180549050811015610a66576000600182815481106109b7576109b6611325565b5b9060005260206000200160009054906101000a900473ffffffffffffffffffffffffffffffffffffffff16905083805190602001206000808373ffffffffffffffffffffffffffffffffffffffff1673ffffffffffffffffffffffffffffffffffffffff168152602001908152602001600020600001604051610a3a91906113f7565b604051809103902003610a5257600092505050610a6c565b508080610a5e9061143d565b915050610994565b50600190505b919050565b6000604051905090565b600080fd5b600080fd5b600080fd5b600080fd5b6000601f19601f8301169050919050565b7f4e487b7100000000000000000000000000000000000000000000000000000000600052604160045260246000fd5b610ad882610a8f565b810181811067ffffffffffffffff82111715610af757610af6610aa0565b5b80604052505050565b6000610b0a610a71565b9050610b168282610acf565b919050565b600067ffffffffffffffff821115610b3657610b35610aa0565b5b610b3f82610a8f565b9050602081019050919050565b82818337600083830152505050565b6000610b6e610b6984610b1b565b610b00565b905082815260208101848484011115610b8a57610b89610a8a565b5b610b95848285610b4c565b509392505050565b600082601f830112610bb257610bb1610a85565b5b8135610bc2848260208601610b5b565b91505092915050565b60008060408385031215610be257610be1610a7b565b5b600083013567ffffffffffffffff811115610c0057610bff610a80565b5b610c0c85828601610b9d565b925050602083013567ffffffffffffffff811115610c2d57610c2c610a80565b5b610c3985828601610b9d565b9150509250929050565b600081519050919050565b600082825260208201905092915050565b6000819050602082019050919050565b600073ffffffffffffffffffffffffffffffffffffffff82169050919050565b6000610c9a82610c6f565b9050919050565b610caa81610c8f565b82525050565b6000610cbc8383610ca1565b60208301905092915050565b6000602082019050919050565b6000610ce082610c43565b610cea8185610c4e565b9350610cf583610c5f565b8060005b83811015610d26578151610d0d8882610cb0565b9750610d1883610cc8565b925050600181019050610cf9565b5085935050505092915050565b60006020820190508181036000830152610d4d8184610cd5565b905092915050565b600060208284031215610d6b57610d6a610a7b565b5b600082013567ffffffffffffffff811115610d8957610d88610a80565b5b610d9584828501610b9d565b91505092915050565b600081519050919050565b600082825260208201905092915050565b60005b83811015610dd8578082015181840152602081019050610dbd565b60008484015250505050565b6000610def82610d9e565b610df98185610da9565b9350610e09818560208601610dba565b610e1281610a8f565b840191505092915050565b60006040820190508181036000830152610e378185610de4565b90508181036020830152610e4b8184610de4565b90509392505050565b610e5d81610c8f565b8114610e6857600080fd5b50565b600081359050610e7a81610e54565b92915050565b600060208284031215610e9657610e95610a7b565b5b6000610ea484828501610e6b565b91505092915050565b7f4e487b7100000000000000000000000000000000000000000000000000000000600052602260045260246000fd5b60006002820490506001821680610ef457607f821691505b602082108103610f0757610f06610ead565b5b50919050565b7f5573657220616c7265616479207265676973746572656420776974682074686960008201527f73206163636f756e740000000000000000000000000000000000000000000000602082015250565b6000610f69602983610da9565b9150610f7482610f0d565b604082019050919050565b60006020820190508181036000830152610f9881610f5c565b9050919050565b7f557365726e616d652063616e6e6f7420626520656d707479206f72206c65737360008201527f207468616e203620636861726163746572730000000000000000000000000000602082015250565b6000610ffb603283610da9565b915061100682610f9f565b604082019050919050565b6000602082019050818103600083015261102a81610fee565b9050919050565b7f557365726e616d6520697320616c72656164792074616b656e00000000000000600082015250565b6000611067601983610da9565b915061107282611031565b602082019050919050565b600060208201905081810360008301526110968161105a565b9050919050565b60008190508160005260206000209050919050565b60006020601f8301049050919050565b600082821b905092915050565b6000600883026110ff7fffffffffffffffffffffffffffffffffffffffffffffffffffffffffffffffff826110c2565b61110986836110c2565b95508019841693508086168417925050509392505050565b6000819050919050565b6000819050919050565b600061115061114b61114684611121565b61112b565b611121565b9050919050565b6000819050919050565b61116a83611135565b61117e61117682611157565b8484546110cf565b825550505050565b600090565b611193611186565b61119e818484611161565b505050565b5b818110156111c2576111b760008261118b565b6001810190506111a4565b5050565b601f821115611207576111d88161109d565b6111e1846110b2565b810160208510156111f0578190505b6112046111fc856110b2565b8301826111a3565b50505b505050565b600082821c905092915050565b600061122a6000198460080261120c565b1980831691505092915050565b60006112438383611219565b9150826002028217905092915050565b61125c82610d9e565b67ffffffffffffffff81111561127557611274610aa0565b5b61127f8254610edc565b61128a8282856111c6565b600060209050601f8311600181146112bd57600084156112ab578287015190505b6112b58582611237565b86555061131d565b601f1984166112cb8661109d565b60005b828110156112f3578489015182556001820191506020850194506020810190506112ce565b86831015611310578489015161130c601f891682611219565b8355505b6001600288020188555050505b505050505050565b7f4e487b7100000000000000000000000000000000000000000000000000000000600052603260045260246000fd5b600081905092915050565b60008190508160005260206000209050919050565b6000815461138181610edc565b61138b8186611354565b945060018216600081146113a657600181146113bb576113ee565b60ff19831686528115158202860193506113ee565b6113c48561135f565b60005b838110156113e6578154818901526001820191506020810190506113c7565b838801955050505b50505092915050565b60006114038284611374565b915081905092915050565b7f4e487b7100000000000000000000000000000000000000000000000000000000600052601160045260246000fd5b600061144882611121565b91507fffffffffffffffffffffffffffffffffffffffffffffffffffffffffffffffff820361147a5761147961140e565b5b60018201905091905056fea2646970667358221220040b3de4719b23b34ea64bd4096a5f0b050b5d187678a6be0d8942a77873dc8064736f6c63430008130033",
  "immutableReferences": {},
  "source": "// SPDX-License-Identifier: MIT\npragma solidity ^0.8.19;\n\n/**\n * @title UserRegistery\n * @dev A smart contract for user registration and identity management on the Ethereum blockchain.\n */\ncontract UserRegistery {\n    // Struct to represent user profile\n    struct UserProfile {\n        string username;\n        string displayName;\n    }\n\n    // Mapping from Ethereum address to UserProfile\n    mapping(address => UserProfile) public users;\n\n    // Event emitted when a new user is registered\n    event UserRegistered(address indexed userAddress, string username, string displayName);\n\n    // Modifier to ensure a user is not already registered and the username is unique\n    modifier notRegistered(string memory _username) {\n        require(bytes(users[msg.sender].username).length == 0 && bytes(users[msg.sender].displayName).length == 0, \"User already registered with this account\");\n        require(bytes(_username).length > 6, \"Username cannot be empty or less than 6 characters\");\n        require(isUsernameUnique(_username), \"Username is already taken\");\n        _;\n    }\n\n    // Internal function to check if a username is unique\n    function isUsernameUnique(string memory _username) internal view returns (bool) {\n        for (uint256 i = 0; i < registeredUsers.length; i++) {\n            address userAddress = registeredUsers[i];\n            if (keccak256(bytes(users[userAddress].username)) == keccak256(bytes(_username))) {\n                return false; // Username is not unique\n            }\n        }\n        return true; // Username is unique\n    }\n\n    /**\n     * @dev Registers a new user with a unique username.\n     * @param _username The username of the new user.\n     * @param _displayName The display name of the new user.\n     */\n    function registerUser(string memory _username, string memory _displayName) external notRegistered(_username) {\n        // Create a new user profile\n        UserProfile storage newUser = users[msg.sender];\n        newUser.username = _username;\n        newUser.displayName = _displayName;\n\n        // Store the address of the new user\n        registeredUsers.push(msg.sender);\n\n        // Emit event\n        emit UserRegistered(msg.sender, _username, _displayName);\n    }\n\n    /**\n     * @dev Retrieves the user profile based on the provided Ethereum address.\n     * @param _userAddress The Ethereum address of the user.\n     * @return The username and display name of the user.\n     */\n    function getUserProfileByAddress(address _userAddress) external view returns (string memory, string memory) {\n        UserProfile storage user = users[_userAddress];\n        return (user.username, user.displayName);\n    }\n\n    /**\n     * @dev Retrieves the user profile based on the provided username.\n     * @param _username The username of the user.\n     * @return The username and display name of the user.\n     */\n    function getUserProfile(string memory _username) external view returns (string memory, string memory) {\n        for (uint256 i = 0; i < registeredUsers.length; i++) {\n            address userAddress = registeredUsers[i];\n            if (keccak256(bytes(users[userAddress].username)) == keccak256(bytes(_username))) {\n                return (users[userAddress].username, users[userAddress].displayName);\n            }\n        }\n        // If the username is not found, return empty strings\n        return (\"\", \"\");\n    }\n\n    // Dynamic array to store all registered user addresses\n    address[] private registeredUsers;\n\n    /**\n     * @dev Retrieves all registered user addresses.\n     * @return An array of all registered user addresses.\n     */\n    function getAllUserAddresses() external view returns (address[] memory) {\n        return registeredUsers;\n    }\n}\n",
  "sourcePath": "/home/hardik/code/node/DappComm/src/app/contracts/UserRegistery.sol",
  "compiler": {
    "name": "solc",
    "version": "0.8.19+commit.7dd6d404.Emscripten.clang"
  },
  "schemaVersion": "3.4.16",
  "updatedAt": "2024-01-27T15:13:32.324Z",
  "networkType": "ethereum",
  "devdoc": {
    "details": "A smart contract for user registration and identity management on the Ethereum blockchain.",
    "kind": "dev",
    "methods": {
      "getAllUserAddresses()": {
        "details": "Retrieves all registered user addresses.",
        "returns": {
          "_0": "An array of all registered user addresses."
        }
      },
      "getUserProfile(string)": {
        "details": "Retrieves the user profile based on the provided username.",
        "params": {
          "_username": "The username of the user."
        },
        "returns": {
          "_0": "The username and display name of the user."
        }
      },
      "getUserProfileByAddress(address)": {
        "details": "Retrieves the user profile based on the provided Ethereum address.",
        "params": {
          "_userAddress": "The Ethereum address of the user."
        },
        "returns": {
          "_0": "The username and display name of the user."
        }
      },
      "registerUser(string,string)": {
        "details": "Registers a new user with a unique username.",
        "params": {
          "_displayName": "The display name of the new user.",
          "_username": "The username of the new user."
        }
      }
    },
    "title": "UserRegistery",
    "version": 1
  },
  "userdoc": {
    "kind": "user",
    "methods": {},
    "version": 1
  }
}