{
  "contractName": "UserRelationshipManager",
  "abi": [
    {
      "inputs": [
        {
          "internalType": "address",
          "name": "_usersContractAddress",
          "type": "address"
        }
      ],
      "stateMutability": "nonpayable",
      "type": "constructor"
    },
    {
      "anonymous": false,
      "inputs": [
        {
          "indexed": true,
          "internalType": "address",
          "name": "user1",
          "type": "address"
        },
        {
          "indexed": true,
          "internalType": "address",
          "name": "user2",
          "type": "address"
        }
      ],
      "name": "FriendsAdded",
      "type": "event"
    },
    {
      "anonymous": false,
      "inputs": [
        {
          "indexed": true,
          "internalType": "address",
          "name": "user1",
          "type": "address"
        },
        {
          "indexed": true,
          "internalType": "address",
          "name": "user2",
          "type": "address"
        }
      ],
      "name": "FriendsRemoved",
      "type": "event"
    },
    {
      "anonymous": false,
      "inputs": [
        {
          "indexed": true,
          "internalType": "address",
          "name": "blocker",
          "type": "address"
        },
        {
          "indexed": true,
          "internalType": "address",
          "name": "blocked",
          "type": "address"
        }
      ],
      "name": "UserBlocked",
      "type": "event"
    },
    {
      "inputs": [
        {
          "internalType": "address",
          "name": "",
          "type": "address"
        },
        {
          "internalType": "uint256",
          "name": "",
          "type": "uint256"
        }
      ],
      "name": "userRelationships",
      "outputs": [
        {
          "internalType": "address",
          "name": "user",
          "type": "address"
        },
        {
          "internalType": "enum UserRelationshipManager.RelationshipStatus",
          "name": "status",
          "type": "uint8"
        }
      ],
      "stateMutability": "view",
      "type": "function",
      "constant": true
    },
    {
      "inputs": [],
      "name": "usersContractAddress",
      "outputs": [
        {
          "internalType": "address",
          "name": "",
          "type": "address"
        }
      ],
      "stateMutability": "view",
      "type": "function",
      "constant": true
    },
    {
      "inputs": [
        {
          "internalType": "address",
          "name": "_friend",
          "type": "address"
        }
      ],
      "name": "addFriend",
      "outputs": [],
      "stateMutability": "nonpayable",
      "type": "function"
    },
    {
      "inputs": [
        {
          "internalType": "address",
          "name": "_formerFriend",
          "type": "address"
        }
      ],
      "name": "removeFriend",
      "outputs": [],
      "stateMutability": "nonpayable",
      "type": "function"
    },
    {
      "inputs": [
        {
          "internalType": "address",
          "name": "_blockedUser",
          "type": "address"
        }
      ],
      "name": "blockUser",
      "outputs": [],
      "stateMutability": "nonpayable",
      "type": "function"
    },
    {
      "inputs": [],
      "name": "getAllFriends",
      "outputs": [
        {
          "components": [
            {
              "internalType": "address",
              "name": "friendAddress",
              "type": "address"
            },
            {
              "internalType": "string",
              "name": "friendUsername",
              "type": "string"
            },
            {
              "internalType": "string",
              "name": "friendDisplayName",
              "type": "string"
            }
          ],
          "internalType": "struct UserRelationshipManager.FriendInfo[]",
          "name": "",
          "type": "tuple[]"
        }
      ],
      "stateMutability": "view",
      "type": "function",
      "constant": true
    }
  ],
  "bytecode": "0x60806040523480156200001157600080fd5b50604051620017c4380380620017c483398181016040528101906200003791906200015a565b600073ffffffffffffffffffffffffffffffffffffffff168173ffffffffffffffffffffffffffffffffffffffff1603620000a9576040517f08c379a0000000000000000000000000000000000000000000000000000000008152600401620000a09062000213565b60405180910390fd5b806000806101000a81548173ffffffffffffffffffffffffffffffffffffffff021916908373ffffffffffffffffffffffffffffffffffffffff1602179055505062000235565b600080fd5b600073ffffffffffffffffffffffffffffffffffffffff82169050919050565b60006200012282620000f5565b9050919050565b620001348162000115565b81146200014057600080fd5b50565b600081519050620001548162000129565b92915050565b600060208284031215620001735762000172620000f0565b5b6000620001838482850162000143565b91505092915050565b600082825260208201905092915050565b7f496e76616c696420757365722072656769737465727920636f6e74726163742060008201527f6164647265737300000000000000000000000000000000000000000000000000602082015250565b6000620001fb6027836200018c565b915062000208826200019d565b604082019050919050565b600060208201905081810360008301526200022e81620001ec565b9050919050565b61157f80620002456000396000f3fe608060405234801561001057600080fd5b50600436106100625760003560e01c806327131c00146100675780633da013251461009857806366e2ca54146100b457806380cee8a5146100d2578063d7a1cfe1146100ee578063e1d77ddc1461010a575b600080fd5b610081600480360381019061007c9190610e9f565b610128565b60405161008f929190610f65565b60405180910390f35b6100b260048036038101906100ad9190610f8e565b610192565b005b6100bc6103fc565b6040516100c99190611173565b60405180910390f35b6100ec60048036038101906100e79190610f8e565b61064e565b005b61010860048036038101906101039190610f8e565b6108b8565b005b610112610b9b565b60405161011f9190611195565b60405180910390f35b6001602052816000526040600020818154811061014457600080fd5b90600052602060002001600091509150508060000160009054906101000a900473ffffffffffffffffffffffffffffffffffffffff16908060000160149054906101000a900460ff16905082565b61019c3382610bbf565b6101db576040517f08c379a00000000000000000000000000000000000000000000000000000000081526004016101d29061120d565b60405180910390fd5b6000600160003373ffffffffffffffffffffffffffffffffffffffff1673ffffffffffffffffffffffffffffffffffffffff16815260200190815260200160002090506000600160008473ffffffffffffffffffffffffffffffffffffffff1673ffffffffffffffffffffffffffffffffffffffff1681526020019081526020016000209050600061026d8385610d0e565b9050600061027b8333610d0e565b9050838054905082106102c3576040517f08c379a00000000000000000000000000000000000000000000000000000000081526004016102ba90611279565b60405180910390fd5b82805490508110610309576040517f08c379a000000000000000000000000000000000000000000000000000000000815260040161030090611279565b60405180910390fd5b600284838154811061031e5761031d611299565b5b9060005260206000200160000160146101000a81548160ff0219169083600281111561034d5761034c610eee565b5b0217905550600283828154811061036757610366611299565b5b9060005260206000200160000160146101000a81548160ff0219169083600281111561039657610395610eee565b5b02179055508473ffffffffffffffffffffffffffffffffffffffff163373ffffffffffffffffffffffffffffffffffffffff167f3d76c88b04bca9304ddabcfabdd594e649c10be33d0519e4b9842431cbe57e2c60405160405180910390a35050505050565b60606000600160003373ffffffffffffffffffffffffffffffffffffffff1673ffffffffffffffffffffffffffffffffffffffff16815260200190815260200160002090506000818054905067ffffffffffffffff811115610461576104606112c8565b5b60405190808252806020026020018201604052801561049a57816020015b610487610dc0565b81526020019060019003908161047f5790505b50905060005b828054905081101561064557600160028111156104c0576104bf610eee565b5b8382815481106104d3576104d2611299565b5b9060005260206000200160000160149054906101000a900460ff166002811115610500576104ff610eee565b5b036106325760008060008054906101000a900473ffffffffffffffffffffffffffffffffffffffff1673ffffffffffffffffffffffffffffffffffffffff16636f61c7446040518163ffffffff1660e01b8152600401600060405180830381865afa158015610573573d6000803e3d6000fd5b505050506040513d6000823e3d601f19601f8201168201806040525081019061059c91906113ee565b9150915060405180606001604052808685815481106105be576105bd611299565b5b9060005260206000200160000160009054906101000a900473ffffffffffffffffffffffffffffffffffffffff1673ffffffffffffffffffffffffffffffffffffffff1681526020018381526020018281525084848151811061062457610623611299565b5b602002602001018190525050505b808061063d90611495565b9150506104a0565b50809250505090565b6106583382610bbf565b610697576040517f08c379a000000000000000000000000000000000000000000000000000000000815260040161068e9061120d565b60405180910390fd5b6000600160003373ffffffffffffffffffffffffffffffffffffffff1673ffffffffffffffffffffffffffffffffffffffff16815260200190815260200160002090506000600160008473ffffffffffffffffffffffffffffffffffffffff1673ffffffffffffffffffffffffffffffffffffffff168152602001908152602001600020905060006107298385610d0e565b905060006107378333610d0e565b90508380549050821061077f576040517f08c379a000000000000000000000000000000000000000000000000000000000815260040161077690611279565b60405180910390fd5b828054905081106107c5576040517f08c379a00000000000000000000000000000000000000000000000000000000081526004016107bc90611279565b60405180910390fd5b60008483815481106107da576107d9611299565b5b9060005260206000200160000160146101000a81548160ff0219169083600281111561080957610808610eee565b5b0217905550600083828154811061082357610822611299565b5b9060005260206000200160000160146101000a81548160ff0219169083600281111561085257610851610eee565b5b02179055508473ffffffffffffffffffffffffffffffffffffffff163373ffffffffffffffffffffffffffffffffffffffff167fa2e677a8049a5e574490ad0410082c095e90864828012d2972db715c21267f3360405160405180910390a35050505050565b6108c23382610bbf565b15610902576040517f08c379a00000000000000000000000000000000000000000000000000000000081526004016108f990611529565b60405180910390fd5b600060405180604001604052808373ffffffffffffffffffffffffffffffffffffffff1681526020016001600281111561093f5761093e610eee565b5b8152509050600160003373ffffffffffffffffffffffffffffffffffffffff1673ffffffffffffffffffffffffffffffffffffffff168152602001908152602001600020819080600181540180825580915050600190039060005260206000200160009091909190915060008201518160000160006101000a81548173ffffffffffffffffffffffffffffffffffffffff021916908373ffffffffffffffffffffffffffffffffffffffff16021790555060208201518160000160146101000a81548160ff02191690836002811115610a1b57610a1a610eee565b5b02179055505050600160008373ffffffffffffffffffffffffffffffffffffffff1673ffffffffffffffffffffffffffffffffffffffff16815260200190815260200160002060405180604001604052803373ffffffffffffffffffffffffffffffffffffffff16815260200160016002811115610a9c57610a9b610eee565b5b8152509080600181540180825580915050600190039060005260206000200160009091909190915060008201518160000160006101000a81548173ffffffffffffffffffffffffffffffffffffffff021916908373ffffffffffffffffffffffffffffffffffffffff16021790555060208201518160000160146101000a81548160ff02191690836002811115610b3657610b35610eee565b5b021790555050508173ffffffffffffffffffffffffffffffffffffffff163373ffffffffffffffffffffffffffffffffffffffff167ff397e5a40b0e24e4857fbce4fc2e9ea8b1ae6c128d4a0102d36c07244ada83a160405160405180910390a35050565b60008054906101000a900473ffffffffffffffffffffffffffffffffffffffff1681565b600080600160008573ffffffffffffffffffffffffffffffffffffffff1673ffffffffffffffffffffffffffffffffffffffff168152602001908152602001600020905060005b8180549050811015610d01578373ffffffffffffffffffffffffffffffffffffffff16828281548110610c3c57610c3b611299565b5b9060005260206000200160000160009054906101000a900473ffffffffffffffffffffffffffffffffffffffff1673ffffffffffffffffffffffffffffffffffffffff16148015610cde575060016002811115610c9c57610c9b610eee565b5b828281548110610caf57610cae611299565b5b9060005260206000200160000160149054906101000a900460ff166002811115610cdc57610cdb610eee565b5b145b15610cee57600192505050610d08565b8080610cf990611495565b915050610c06565b5060009150505b92915050565b600080600090505b8380549050811015610db1578273ffffffffffffffffffffffffffffffffffffffff16848281548110610d4c57610d4b611299565b5b9060005260206000200160000160009054906101000a900473ffffffffffffffffffffffffffffffffffffffff1673ffffffffffffffffffffffffffffffffffffffff1603610d9e5780915050610dba565b8080610da990611495565b915050610d16565b50828054905090505b92915050565b6040518060600160405280600073ffffffffffffffffffffffffffffffffffffffff16815260200160608152602001606081525090565b6000604051905090565b600080fd5b600080fd5b600073ffffffffffffffffffffffffffffffffffffffff82169050919050565b6000610e3682610e0b565b9050919050565b610e4681610e2b565b8114610e5157600080fd5b50565b600081359050610e6381610e3d565b92915050565b6000819050919050565b610e7c81610e69565b8114610e8757600080fd5b50565b600081359050610e9981610e73565b92915050565b60008060408385031215610eb657610eb5610e01565b5b6000610ec485828601610e54565b9250506020610ed585828601610e8a565b9150509250929050565b610ee881610e2b565b82525050565b7f4e487b7100000000000000000000000000000000000000000000000000000000600052602160045260246000fd5b60038110610f2e57610f2d610eee565b5b50565b6000819050610f3f82610f1d565b919050565b6000610f4f82610f31565b9050919050565b610f5f81610f44565b82525050565b6000604082019050610f7a6000830185610edf565b610f876020830184610f56565b9392505050565b600060208284031215610fa457610fa3610e01565b5b6000610fb284828501610e54565b91505092915050565b600081519050919050565b600082825260208201905092915050565b6000819050602082019050919050565b610ff081610e2b565b82525050565b600081519050919050565b600082825260208201905092915050565b60005b83811015611030578082015181840152602081019050611015565b60008484015250505050565b6000601f19601f8301169050919050565b600061105882610ff6565b6110628185611001565b9350611072818560208601611012565b61107b8161103c565b840191505092915050565b600060608301600083015161109e6000860182610fe7565b50602083015184820360208601526110b6828261104d565b915050604083015184820360408601526110d0828261104d565b9150508091505092915050565b60006110e98383611086565b905092915050565b6000602082019050919050565b600061110982610fbb565b6111138185610fc6565b93508360208202850161112585610fd7565b8060005b85811015611161578484038952815161114285826110dd565b945061114d836110f1565b925060208a01995050600181019050611129565b50829750879550505050505092915050565b6000602082019050818103600083015261118d81846110fe565b905092915050565b60006020820190506111aa6000830184610edf565b92915050565b600082825260208201905092915050565b7f557365727320617265206e6f7420667269656e64730000000000000000000000600082015250565b60006111f76015836111b0565b9150611202826111c1565b602082019050919050565b60006020820190508181036000830152611226816111ea565b9050919050565b7f557365722072656c6174696f6e73686970206e6f7420666f756e640000000000600082015250565b6000611263601b836111b0565b915061126e8261122d565b602082019050919050565b6000602082019050818103600083015261129281611256565b9050919050565b7f4e487b7100000000000000000000000000000000000000000000000000000000600052603260045260246000fd5b7f4e487b7100000000000000000000000000000000000000000000000000000000600052604160045260246000fd5b600080fd5b600080fd5b61130a8261103c565b810181811067ffffffffffffffff82111715611329576113286112c8565b5b80604052505050565b600061133c610df7565b90506113488282611301565b919050565b600067ffffffffffffffff821115611368576113676112c8565b5b6113718261103c565b9050602081019050919050565b600061139161138c8461134d565b611332565b9050828152602081018484840111156113ad576113ac6112fc565b5b6113b8848285611012565b509392505050565b600082601f8301126113d5576113d46112f7565b5b81516113e584826020860161137e565b91505092915050565b6000806040838503121561140557611404610e01565b5b600083015167ffffffffffffffff81111561142357611422610e06565b5b61142f858286016113c0565b925050602083015167ffffffffffffffff8111156114505761144f610e06565b5b61145c858286016113c0565b9150509250929050565b7f4e487b7100000000000000000000000000000000000000000000000000000000600052601160045260246000fd5b60006114a082610e69565b91507fffffffffffffffffffffffffffffffffffffffffffffffffffffffffffffffff82036114d2576114d1611466565b5b600182019050919050565b7f55736572732061726520616c726561647920667269656e647300000000000000600082015250565b60006115136019836111b0565b915061151e826114dd565b602082019050919050565b6000602082019050818103600083015261154281611506565b905091905056fea2646970667358221220367669c5d4b66b6c6e8825df9f5a1d0e5db7a685155491c3295c4cbce9a5a52964736f6c63430008130033",
  "immutableReferences": {},
  "source": "// SPDX-License-Identifier: MIT\npragma solidity ^0.8.19;\n\nimport \"./UserRegistery.sol\";\nimport \"./FriendRequestManager.sol\";\n\ninterface IUserRegistery {\n    function getUserProfile() external view returns (string memory, string memory);\n}\n\n/**\n * @title UserRelationshipManager\n * @dev A smart contract for managing user relationships including friendships, removals, and blocking.\n */\ncontract UserRelationshipManager {\n    // Enum to represent the status of a user relationship\n    enum RelationshipStatus {\n        None,\n        Friends,\n        Blocked\n    }\n\n    // Struct to represent a user relationship\n    struct UserRelationship {\n        address user;\n        RelationshipStatus status;\n    }\n\n     // Address of the UserRegistery contract\n    address public usersContractAddress;\n\n    /**\n     * @dev Constructor that sets the address of the UserRegistery contract.\n     * @param _usersContractAddress The address of the UserRegistery contract.\n     */\n    constructor(address _usersContractAddress) {\n        require(_usersContractAddress != address(0), \"Invalid user registery contract address\");\n        usersContractAddress = _usersContractAddress;\n    }\n\n    // Mapping to store user relationships\n    mapping(address => UserRelationship[]) public userRelationships;\n\n    // Event emitted when a user becomes friends with another user\n    event FriendsAdded(address indexed user1, address indexed user2);\n\n    // Event emitted when a user removes another user as a friend\n    event FriendsRemoved(address indexed user1, address indexed user2);\n\n    // Event emitted when a user blocks another user\n    event UserBlocked(address indexed blocker, address indexed blocked);\n\n    /**\n     * @dev Adds a user as a friend after a friend request has been accepted.\n     * @param _friend The address of the user to become friends with.\n     */\n    function addFriend(address _friend) external {\n\n        // Check if users are friends already\n        require(!areFriends(msg.sender, _friend), \"Users are already friends\");\n\n        // Create a new user relationship\n        UserRelationship memory newRelationship = UserRelationship({\n            user: _friend,\n            status: RelationshipStatus.Friends\n        });\n\n        // Add the relationship to both users' relationship lists\n        userRelationships[msg.sender].push(newRelationship);\n        userRelationships[_friend].push(UserRelationship({user: msg.sender, status: RelationshipStatus.Friends}));\n\n        // Emit event\n        emit FriendsAdded(msg.sender, _friend);\n    }\n\n    /**\n     * @dev Removes a user as a friend.\n     * @param _formerFriend The address of the user to remove as a friend.\n     */\n    function removeFriend(address _formerFriend) external {\n        // Check if users are friends\n        require(areFriends(msg.sender, _formerFriend), \"Users are not friends\");\n\n        // Find and update the user relationship status\n        UserRelationship[] storage senderRelationships = userRelationships[msg.sender];\n        UserRelationship[] storage friendRelationships = userRelationships[_formerFriend];\n\n        uint256 senderIndex = findUserRelationshipIndex(senderRelationships, _formerFriend);\n        uint256 friendIndex = findUserRelationshipIndex(friendRelationships, msg.sender);\n\n        require(senderIndex < senderRelationships.length, \"User relationship not found\");\n        require(friendIndex < friendRelationships.length, \"User relationship not found\");\n\n        // Update the status of the user relationship to None (no relationship)\n        senderRelationships[senderIndex].status = RelationshipStatus.None;\n        friendRelationships[friendIndex].status = RelationshipStatus.None;\n\n        // Emit event\n        emit FriendsRemoved(msg.sender, _formerFriend);\n    }\n\n    /**\n     * @dev Blocks a user, ending the relationship.\n     * @param _blockedUser The address of the user to block.\n     */\n    function blockUser(address _blockedUser) external {\n        // Check if users are friends\n        require(areFriends(msg.sender, _blockedUser), \"Users are not friends\");\n\n        // Find and update the user relationship status to Blocked\n        UserRelationship[] storage senderRelationships = userRelationships[msg.sender];\n        UserRelationship[] storage blockedUserRelationships = userRelationships[_blockedUser];\n\n        uint256 senderIndex = findUserRelationshipIndex(senderRelationships, _blockedUser);\n        uint256 blockedUserIndex = findUserRelationshipIndex(blockedUserRelationships, msg.sender);\n\n        require(senderIndex < senderRelationships.length, \"User relationship not found\");\n        require(blockedUserIndex < blockedUserRelationships.length, \"User relationship not found\");\n\n        // Update the status of the user relationship to Blocked\n        senderRelationships[senderIndex].status = RelationshipStatus.Blocked;\n        blockedUserRelationships[blockedUserIndex].status = RelationshipStatus.Blocked;\n\n        // Emit event\n        emit UserBlocked(msg.sender, _blockedUser);\n    }\n\n    /**\n     * @dev Checks if two users are friends.\n     * @param _user1 The address of the first user.\n     * @param _user2 The address of the second user.\n     * @return A boolean indicating whether the users are friends.\n     */\n    function areFriends(address _user1, address _user2) internal view returns (bool) {\n        UserRelationship[] storage user1Relationships = userRelationships[_user1];\n\n        for (uint256 i = 0; i < user1Relationships.length; i++) {\n            if (user1Relationships[i].user == _user2 && user1Relationships[i].status == RelationshipStatus.Friends) {\n                return true;\n            }\n        }\n\n        return false;\n    }\n\n    /**\n     * @dev Finds the index of a user relationship.\n     * @param _relationships The array of user relationships to search.\n     * @param _target The address of the user involved in the relationship.\n     * @return The index of the user relationship in the array.\n     */\n    function findUserRelationshipIndex(UserRelationship[] storage _relationships, address _target) internal view returns (uint256) {\n        for (uint256 i = 0; i < _relationships.length; i++) {\n            if (_relationships[i].user == _target) {\n                return i;\n            }\n        }\n        return _relationships.length;\n    }\n\n    /**\n     * @dev Gets all friends for the caller.\n     * @return An array of friend objects with address, username, and displayName.\n     */\n    function getAllFriends() external view returns (FriendInfo[] memory) {\n        UserRelationship[] storage relationships = userRelationships[msg.sender];\n        FriendInfo[] memory friends = new FriendInfo[](relationships.length);\n\n        for (uint256 i = 0; i < relationships.length; i++) {\n            if (relationships[i].status == RelationshipStatus.Friends) {\n                (string memory username, string memory displayName) = IUserRegistery(usersContractAddress).getUserProfile();\n                friends[i] = FriendInfo({\n                    friendAddress: relationships[i].user,\n                    friendUsername: username,\n                    friendDisplayName: displayName\n                });\n            }\n        }\n        return friends;\n    }\n\n    // Struct to represent friend information\n    struct FriendInfo {\n        address friendAddress;\n        string friendUsername;\n        string friendDisplayName;\n    }\n}\n",
  "sourcePath": "/home/hardik/code/node/DappComm/src/app/contracts/UserRelationshipManager.sol",
  "compiler": {
    "name": "solc",
    "version": "0.8.19+commit.7dd6d404.Emscripten.clang"
  },
  "schemaVersion": "3.4.16",
  "updatedAt": "2024-01-27T15:13:32.614Z",
  "networkType": "ethereum",
  "devdoc": {
    "details": "A smart contract for managing user relationships including friendships, removals, and blocking.",
    "kind": "dev",
    "methods": {
      "addFriend(address)": {
        "details": "Adds a user as a friend after a friend request has been accepted.",
        "params": {
          "_friend": "The address of the user to become friends with."
        }
      },
      "blockUser(address)": {
        "details": "Blocks a user, ending the relationship.",
        "params": {
          "_blockedUser": "The address of the user to block."
        }
      },
      "constructor": {
        "details": "Constructor that sets the address of the UserRegistery contract.",
        "params": {
          "_usersContractAddress": "The address of the UserRegistery contract."
        }
      },
      "getAllFriends()": {
        "details": "Gets all friends for the caller.",
        "returns": {
          "_0": "An array of friend objects with address, username, and displayName."
        }
      },
      "removeFriend(address)": {
        "details": "Removes a user as a friend.",
        "params": {
          "_formerFriend": "The address of the user to remove as a friend."
        }
      }
    },
    "title": "UserRelationshipManager",
    "version": 1
  },
  "userdoc": {
    "kind": "user",
    "methods": {},
    "version": 1
  }
}