{
  "contractName": "UserRegistery",
  "abi": [
    {
      "anonymous": false,
      "inputs": [
        {
          "indexed": true,
          "internalType": "address",
          "name": "userAddress",
          "type": "address"
        },
        {
          "indexed": false,
          "internalType": "string",
          "name": "username",
          "type": "string"
        },
        {
          "indexed": false,
          "internalType": "string",
          "name": "displayName",
          "type": "string"
        }
      ],
      "name": "UserRegistered",
      "type": "event"
    },
    {
      "inputs": [
        {
          "internalType": "address",
          "name": "",
          "type": "address"
        }
      ],
      "name": "users",
      "outputs": [
        {
          "internalType": "string",
          "name": "username",
          "type": "string"
        },
        {
          "internalType": "string",
          "name": "displayName",
          "type": "string"
        }
      ],
      "stateMutability": "view",
      "type": "function",
      "constant": true
    },
    {
      "inputs": [
        {
          "internalType": "string",
          "name": "_username",
          "type": "string"
        },
        {
          "internalType": "string",
          "name": "_displayName",
          "type": "string"
        }
      ],
      "name": "registerUser",
      "outputs": [],
      "stateMutability": "nonpayable",
      "type": "function"
    },
    {
      "inputs": [],
      "name": "getUserProfile",
      "outputs": [
        {
          "internalType": "string",
          "name": "",
          "type": "string"
        },
        {
          "internalType": "string",
          "name": "",
          "type": "string"
        }
      ],
      "stateMutability": "view",
      "type": "function",
      "constant": true
    },
    {
      "inputs": [],
      "name": "getAllUserAddresses",
      "outputs": [
        {
          "internalType": "address[]",
          "name": "",
          "type": "address[]"
        }
      ],
      "stateMutability": "view",
      "type": "function",
      "constant": true
    }
  ],
  "bytecode": "0x608060405234801561001057600080fd5b50611186806100206000396000f3fe608060405234801561001057600080fd5b506004361061004c5760003560e01c80631d2e4afd146100515780632f3300231461006d5780636f61c7441461008b578063a87430ba146100aa575b600080fd5b61006b600480360381019061006691906108df565b6100db565b005b610075610370565b6040516100829190610a47565b60405180910390f35b6100936103fe565b6040516100a1929190610ae8565b60405180910390f35b6100c460048036038101906100bf9190610b4b565b61056c565b6040516100d2929190610ae8565b60405180910390f35b8160008060003373ffffffffffffffffffffffffffffffffffffffff1673ffffffffffffffffffffffffffffffffffffffff168152602001908152602001600020600001805461012a90610ba7565b9050148015610186575060008060003373ffffffffffffffffffffffffffffffffffffffff1673ffffffffffffffffffffffffffffffffffffffff168152602001908152602001600020600101805461018290610ba7565b9050145b6101c5576040517f08c379a00000000000000000000000000000000000000000000000000000000081526004016101bc90610c4a565b60405180910390fd5b6006815111610209576040517f08c379a000000000000000000000000000000000000000000000000000000000815260040161020090610cdc565b60405180910390fd5b610212816106a0565b610251576040517f08c379a000000000000000000000000000000000000000000000000000000000815260040161024890610d48565b60405180910390fd5b60008060003373ffffffffffffffffffffffffffffffffffffffff1673ffffffffffffffffffffffffffffffffffffffff1681526020019081526020016000209050838160000190816102a49190610f1e565b50828160010190816102b69190610f1e565b506001339080600181540180825580915050600190039060005260206000200160009091909190916101000a81548173ffffffffffffffffffffffffffffffffffffffff021916908373ffffffffffffffffffffffffffffffffffffffff1602179055503373ffffffffffffffffffffffffffffffffffffffff167f92822564bab8864c3a47b34e8d23fbce5c46234eb5da261f94087b995ac0f33b8585604051610362929190610ae8565b60405180910390a250505050565b606060018054806020026020016040519081016040528092919081815260200182805480156103f457602002820191906000526020600020905b8160009054906101000a900473ffffffffffffffffffffffffffffffffffffffff1673ffffffffffffffffffffffffffffffffffffffff16815260200190600101908083116103aa575b5050505050905090565b60608060008060003373ffffffffffffffffffffffffffffffffffffffff1673ffffffffffffffffffffffffffffffffffffffff1681526020019081526020016000209050806000018160010181805461045790610ba7565b80601f016020809104026020016040519081016040528092919081815260200182805461048390610ba7565b80156104d05780601f106104a5576101008083540402835291602001916104d0565b820191906000526020600020905b8154815290600101906020018083116104b357829003601f168201915b505050505091508080546104e390610ba7565b80601f016020809104026020016040519081016040528092919081815260200182805461050f90610ba7565b801561055c5780601f106105315761010080835404028352916020019161055c565b820191906000526020600020905b81548152906001019060200180831161053f57829003601f168201915b5050505050905092509250509091565b600060205280600052604060002060009150905080600001805461058f90610ba7565b80601f01602080910402602001604051908101604052809291908181526020018280546105bb90610ba7565b80156106085780601f106105dd57610100808354040283529160200191610608565b820191906000526020600020905b8154815290600101906020018083116105eb57829003601f168201915b50505050509080600101805461061d90610ba7565b80601f016020809104026020016040519081016040528092919081815260200182805461064990610ba7565b80156106965780601f1061066b57610100808354040283529160200191610696565b820191906000526020600020905b81548152906001019060200180831161067957829003601f168201915b5050505050905082565b600080600090505b60018054905081101561077a576000600182815481106106cb576106ca610ff0565b5b9060005260206000200160009054906101000a900473ffffffffffffffffffffffffffffffffffffffff16905083805190602001206000808373ffffffffffffffffffffffffffffffffffffffff1673ffffffffffffffffffffffffffffffffffffffff16815260200190815260200160002060000160405161074e91906110c2565b60405180910390200361076657600092505050610780565b50808061077290611108565b9150506106a8565b50600190505b919050565b6000604051905090565b600080fd5b600080fd5b600080fd5b600080fd5b6000601f19601f8301169050919050565b7f4e487b7100000000000000000000000000000000000000000000000000000000600052604160045260246000fd5b6107ec826107a3565b810181811067ffffffffffffffff8211171561080b5761080a6107b4565b5b80604052505050565b600061081e610785565b905061082a82826107e3565b919050565b600067ffffffffffffffff82111561084a576108496107b4565b5b610853826107a3565b9050602081019050919050565b82818337600083830152505050565b600061088261087d8461082f565b610814565b90508281526020810184848401111561089e5761089d61079e565b5b6108a9848285610860565b509392505050565b600082601f8301126108c6576108c5610799565b5b81356108d684826020860161086f565b91505092915050565b600080604083850312156108f6576108f561078f565b5b600083013567ffffffffffffffff81111561091457610913610794565b5b610920858286016108b1565b925050602083013567ffffffffffffffff81111561094157610940610794565b5b61094d858286016108b1565b9150509250929050565b600081519050919050565b600082825260208201905092915050565b6000819050602082019050919050565b600073ffffffffffffffffffffffffffffffffffffffff82169050919050565b60006109ae82610983565b9050919050565b6109be816109a3565b82525050565b60006109d083836109b5565b60208301905092915050565b6000602082019050919050565b60006109f482610957565b6109fe8185610962565b9350610a0983610973565b8060005b83811015610a3a578151610a2188826109c4565b9750610a2c836109dc565b925050600181019050610a0d565b5085935050505092915050565b60006020820190508181036000830152610a6181846109e9565b905092915050565b600081519050919050565b600082825260208201905092915050565b60005b83811015610aa3578082015181840152602081019050610a88565b60008484015250505050565b6000610aba82610a69565b610ac48185610a74565b9350610ad4818560208601610a85565b610add816107a3565b840191505092915050565b60006040820190508181036000830152610b028185610aaf565b90508181036020830152610b168184610aaf565b90509392505050565b610b28816109a3565b8114610b3357600080fd5b50565b600081359050610b4581610b1f565b92915050565b600060208284031215610b6157610b6061078f565b5b6000610b6f84828501610b36565b91505092915050565b7f4e487b7100000000000000000000000000000000000000000000000000000000600052602260045260246000fd5b60006002820490506001821680610bbf57607f821691505b602082108103610bd257610bd1610b78565b5b50919050565b7f5573657220616c7265616479207265676973746572656420776974682074686960008201527f73206163636f756e740000000000000000000000000000000000000000000000602082015250565b6000610c34602983610a74565b9150610c3f82610bd8565b604082019050919050565b60006020820190508181036000830152610c6381610c27565b9050919050565b7f557365726e616d652063616e6e6f7420626520656d707479206f72206c65737360008201527f207468616e203620636861726163746572730000000000000000000000000000602082015250565b6000610cc6603283610a74565b9150610cd182610c6a565b604082019050919050565b60006020820190508181036000830152610cf581610cb9565b9050919050565b7f557365726e616d6520697320616c72656164792074616b656e00000000000000600082015250565b6000610d32601983610a74565b9150610d3d82610cfc565b602082019050919050565b60006020820190508181036000830152610d6181610d25565b9050919050565b60008190508160005260206000209050919050565b60006020601f8301049050919050565b600082821b905092915050565b600060088302610dca7fffffffffffffffffffffffffffffffffffffffffffffffffffffffffffffffff82610d8d565b610dd48683610d8d565b95508019841693508086168417925050509392505050565b6000819050919050565b6000819050919050565b6000610e1b610e16610e1184610dec565b610df6565b610dec565b9050919050565b6000819050919050565b610e3583610e00565b610e49610e4182610e22565b848454610d9a565b825550505050565b600090565b610e5e610e51565b610e69818484610e2c565b505050565b5b81811015610e8d57610e82600082610e56565b600181019050610e6f565b5050565b601f821115610ed257610ea381610d68565b610eac84610d7d565b81016020851015610ebb578190505b610ecf610ec785610d7d565b830182610e6e565b50505b505050565b600082821c905092915050565b6000610ef560001984600802610ed7565b1980831691505092915050565b6000610f0e8383610ee4565b9150826002028217905092915050565b610f2782610a69565b67ffffffffffffffff811115610f4057610f3f6107b4565b5b610f4a8254610ba7565b610f55828285610e91565b600060209050601f831160018114610f885760008415610f76578287015190505b610f808582610f02565b865550610fe8565b601f198416610f9686610d68565b60005b82811015610fbe57848901518255600182019150602085019450602081019050610f99565b86831015610fdb5784890151610fd7601f891682610ee4565b8355505b6001600288020188555050505b505050505050565b7f4e487b7100000000000000000000000000000000000000000000000000000000600052603260045260246000fd5b600081905092915050565b60008190508160005260206000209050919050565b6000815461104c81610ba7565b611056818661101f565b945060018216600081146110715760018114611086576110b9565b60ff19831686528115158202860193506110b9565b61108f8561102a565b60005b838110156110b157815481890152600182019150602081019050611092565b838801955050505b50505092915050565b60006110ce828461103f565b915081905092915050565b7f4e487b7100000000000000000000000000000000000000000000000000000000600052601160045260246000fd5b600061111382610dec565b91507fffffffffffffffffffffffffffffffffffffffffffffffffffffffffffffffff8203611145576111446110d9565b5b60018201905091905056fea26469706673582212209160ce6c5b89b4d1bb023cd199d1dd2c760109866ee549e9953b7a4c164433f564736f6c63430008130033",
  "immutableReferences": {},
  "source": "// SPDX-License-Identifier: MIT\npragma solidity ^0.8.19;\n\n/**\n * @title UserRegistery\n * @dev A smart contract for user registration and identity management on the Ethereum blockchain.\n */\ncontract UserRegistery {\n    // Struct to represent user profile\n    struct UserProfile {\n        string username;\n        string displayName;\n    }\n\n    // Mapping from Ethereum address to UserProfile\n    mapping(address => UserProfile) public users;\n\n    // Event emitted when a new user is registered\n    event UserRegistered(address indexed userAddress, string username, string displayName);\n\n    // Modifier to ensure a user is not already registered and the username is unique\n    modifier notRegistered(string memory _username) {\n        require(bytes(users[msg.sender].username).length == 0 && bytes(users[msg.sender].displayName).length == 0, \"User already registered with this account\");\n        require(bytes(_username).length > 6, \"Username cannot be empty or less than 6 characters\");\n        require(isUsernameUnique(_username), \"Username is already taken\");\n        _;\n    }\n\n    // Internal function to check if a username is unique\n    function isUsernameUnique(string memory _username) internal view returns (bool) {\n        for (uint256 i = 0; i < registeredUsers.length; i++) {\n            address userAddress = registeredUsers[i];\n            if (keccak256(bytes(users[userAddress].username)) == keccak256(bytes(_username))) {\n                return false; // Username is not unique\n            }\n        }\n        return true; // Username is unique\n    }\n\n    /**\n     * @dev Registers a new user with a unique username.\n     * @param _username The username of the new user.\n     * @param _displayName The display name of the new user.\n     */\n    function registerUser(string memory _username, string memory _displayName) external notRegistered(_username) {\n        // Create a new user profile\n        UserProfile storage newUser = users[msg.sender];\n        newUser.username = _username;\n        newUser.displayName = _displayName;\n\n        // Store the address of the new user\n        registeredUsers.push(msg.sender);\n\n        // Emit event\n        emit UserRegistered(msg.sender, _username, _displayName);\n    }\n\n    /**\n     * @dev Retrieves the user profile of the calling user.\n     * @return The username and display name of the user.\n     */\n    function getUserProfile() external view returns (string memory, string memory) {\n        UserProfile storage user = users[msg.sender];\n        return (user.username, user.displayName);\n    }\n\n    // Dynamic array to store all registered user addresses\n    address[] private registeredUsers;\n\n    /**\n     * @dev Retrieves all registered user addresses.\n     * @return An array of all registered user addresses.\n     */\n    function getAllUserAddresses() external view returns (address[] memory) {\n        return registeredUsers;\n    }\n}\n",
  "sourcePath": "/workspaces/DappComm/src/app/contracts/UserResgistery.sol",
  "compiler": {
    "name": "solc",
    "version": "0.8.19+commit.7dd6d404.Emscripten.clang"
  },
  "schemaVersion": "3.4.16",
  "updatedAt": "2024-01-24T17:45:55.748Z",
  "networkType": "ethereum",
  "devdoc": {
    "details": "A smart contract for user registration and identity management on the Ethereum blockchain.",
    "kind": "dev",
    "methods": {
      "getAllUserAddresses()": {
        "details": "Retrieves all registered user addresses.",
        "returns": {
          "_0": "An array of all registered user addresses."
        }
      },
      "getUserProfile()": {
        "details": "Retrieves the user profile of the calling user.",
        "returns": {
          "_0": "The username and display name of the user."
        }
      },
      "registerUser(string,string)": {
        "details": "Registers a new user with a unique username.",
        "params": {
          "_displayName": "The display name of the new user.",
          "_username": "The username of the new user."
        }
      }
    },
    "title": "UserRegistery",
    "version": 1
  },
  "userdoc": {
    "kind": "user",
    "methods": {},
    "version": 1
  }
}